{
  "_format": "hh-sol-artifact-1",
  "contractName": "ZkOtpValidator",
  "sourceName": "contracts/ZkOtpValidator.sol",
  "abi": [
    {
      "inputs": [
        {
          "internalType": "uint256",
          "name": "_root",
          "type": "uint256"
        },
        {
          "internalType": "address",
          "name": "_verifier",
          "type": "address"
        }
      ],
      "stateMutability": "nonpayable",
      "type": "constructor"
    },
    {
      "inputs": [
        {
          "internalType": "uint256[2]",
          "name": "a",
          "type": "uint256[2]"
        },
        {
          "internalType": "uint256[2][2]",
          "name": "b",
          "type": "uint256[2][2]"
        },
        {
          "internalType": "uint256[2]",
          "name": "c",
          "type": "uint256[2]"
        },
        {
          "internalType": "uint256[2]",
          "name": "input",
          "type": "uint256[2]"
        }
      ],
      "name": "verifyOTP",
      "outputs": [
        {
          "internalType": "bool",
          "name": "success",
          "type": "bool"
        }
      ],
      "stateMutability": "nonpayable",
      "type": "function"
    }
  ],
  "bytecode": "0x60c060405234801561001057600080fd5b5060405161053438038061053483398101604081905261002f91610046565b6080919091526001600160a01b031660a052610083565b6000806040838503121561005957600080fd5b825160208401519092506001600160a01b038116811461007857600080fd5b809150509250929050565b60805160a05161048d6100a7600039600061016101526000605e015261048d6000f3fe608060405234801561001057600080fd5b506004361061002b5760003560e01c8063a9f3402c14610030575b600080fd5b61004361003e3660046102da565b610057565b604051901515815260200160405180910390f35b80516000907f0000000000000000000000000000000000000000000000000000000000000000146100cf5760405162461bcd60e51b815260206004820152600e60248201527f496e636f6f7265637420726f6f7400000000000000000000000000000000000060448201526064015b60405180910390fd5b6000546020830151116101245760405162461bcd60e51b815260206004820152600960248201527f4f6c642050726f6f66000000000000000000000000000000000000000000000060448201526064016100c6565b6040517ff5c9d69e00000000000000000000000000000000000000000000000000000000815273ffffffffffffffffffffffffffffffffffffffff7f0000000000000000000000000000000000000000000000000000000000000000169063f5c9d69e9061019c9088908890889088906004016103a3565b602060405180830381865afa1580156101b9573d6000803e3d6000fd5b505050506040513d601f19601f820116820180604052508101906101dd919061042e565b6102295760405162461bcd60e51b815260206004820152600d60248201527f496e76616c69642070726f6f660000000000000000000000000000000000000060448201526064016100c6565b506020015160005550600192915050565b6040805190810167ffffffffffffffff81118282101715610284577f4e487b7100000000000000000000000000000000000000000000000000000000600052604160045260246000fd5b60405290565b600082601f83011261029b57600080fd5b6102a361023a565b8060408401858111156102b557600080fd5b845b818110156102cf5780358452602093840193016102b7565b509095945050505050565b60008060008061014085870312156102f157600080fd5b6102fb868661028a565b9350604086605f87011261030e57600080fd5b61031661023a565b8060c088018981111561032857600080fd5b8389015b8181101561034d5761033e8b8261028a565b8452602090930192840161032c565b5081965061035b8a8261028a565b95505050505061036f86610100870161028a565b905092959194509250565b8060005b600281101561039d57815184526020938401939091019060010161037e565b50505050565b61014081016103b2828761037a565b6040808301866000805b60028082106103cb5750610405565b835185845b838110156103ee5782518252602092830192909101906001016103d0565b5050509385019350602092909201916001016103bc565b505050505061041760c083018561037a565b61042561010083018461037a565b95945050505050565b60006020828403121561044057600080fd5b8151801515811461045057600080fd5b939250505056fea26469706673582212206395795d36789e7a9b6888bfe90d51af8eaca0172948c5706e44adf31974fadf64736f6c63430008110033",
  "linkReferences": {},
  "deployedLinkReferences": {}
}