{"contracts/ZkSocialRecoveryWallet.sol":{"ZkSocialRecoveryWallet":{"abi":[{"inputs":[{"internalType":"address","name":"_hashCheckVerifier","type":"address"},{"internalType":"uint256","name":"_ownerPasswordHash","type":"uint256"},{"internalType":"uint256","name":"_thresholdForRecovery","type":"uint256"},{"internalType":"uint256","name":"_root","type":"uint256"},{"internalType":"address","name":"_otpMerkleTreeVerifier","type":"address"}],"stateMutability":"nonpayable","type":"constructor"},{"anonymous":false,"inputs":[{"indexed":true,"internalType":"address","name":"newProposedOwner","type":"address"},{"indexed":true,"internalType":"address","name":"trusteeInitializer","type":"address"},{"indexed":false,"internalType":"uint256","name":"currRecoveryRound","type":"uint256"}],"name":"NewRecoveryProcedure","type":"event"},{"anonymous":false,"inputs":[{"indexed":true,"internalType":"address","name":"Owner","type":"address"},{"indexed":false,"internalType":"uint256","name":"RecoveryRound","type":"uint256"}],"name":"RecoveryCancelled","type":"event"},{"anonymous":false,"inputs":[{"indexed":true,"internalType":"address","name":"oldOwner","type":"address"},{"indexed":true,"internalType":"address","name":"newOwner","type":"address"},{"indexed":false,"internalType":"uint256","name":"RecoveryRound","type":"uint256"}],"name":"RecoveryExecuted","type":"event"},{"anonymous":false,"inputs":[{"indexed":true,"internalType":"address","name":"trustee","type":"address"},{"indexed":false,"internalType":"uint256","name":"RecoveryRound","type":"uint256"}],"name":"VotedInRecovery","type":"event"},{"inputs":[{"internalType":"uint256","name":"","type":"uint256"}],"name":"Trustees","outputs":[{"internalType":"address","name":"","type":"address"}],"stateMutability":"view","type":"function"},{"inputs":[{"internalType":"uint256[2]","name":"a","type":"uint256[2]"},{"internalType":"uint256[2][2]","name":"b","type":"uint256[2][2]"},{"internalType":"uint256[2]","name":"c","type":"uint256[2]"},{"internalType":"uint256[1]","name":"Input","type":"uint256[1]"},{"internalType":"uint256","name":"recoveryRoundNumber","type":"uint256"}],"name":"cancelRecovery","outputs":[],"stateMutability":"nonpayable","type":"function"},{"inputs":[],"name":"currentRecoveryNumber","outputs":[{"internalType":"uint256","name":"","type":"uint256"}],"stateMutability":"view","type":"function"},{"inputs":[{"internalType":"uint256[2]","name":"a","type":"uint256[2]"},{"internalType":"uint256[2][2]","name":"b","type":"uint256[2][2]"},{"internalType":"uint256[2]","name":"c","type":"uint256[2]"},{"internalType":"uint256[1]","name":"Input","type":"uint256[1]"},{"internalType":"uint256","name":"recoveryRoundNumber","type":"uint256"}],"name":"executeRecoveryChange","outputs":[],"stateMutability":"nonpayable","type":"function"},{"inputs":[{"internalType":"uint256[2]","name":"a","type":"uint256[2]"},{"internalType":"uint256[2][2]","name":"b","type":"uint256[2][2]"},{"internalType":"uint256[2]","name":"c","type":"uint256[2]"},{"internalType":"uint256[2]","name":"input","type":"uint256[2]"},{"internalType":"address","name":"callee","type":"address"},{"internalType":"uint256","name":"value","type":"uint256"}],"name":"executeTxn","outputs":[{"internalType":"bytes","name":"result","type":"bytes"}],"stateMutability":"nonpayable","type":"function"},{"inputs":[],"name":"isRecoveryOn","outputs":[{"internalType":"bool","name":"","type":"bool"}],"stateMutability":"view","type":"function"},{"inputs":[],"name":"numberTrustees","outputs":[{"internalType":"uint256","name":"","type":"uint256"}],"stateMutability":"view","type":"function"},{"inputs":[{"internalType":"address","name":"","type":"address"},{"internalType":"address","name":"","type":"address"},{"internalType":"uint256","name":"","type":"uint256"},{"internalType":"bytes","name":"","type":"bytes"}],"name":"onERC721Received","outputs":[{"internalType":"bytes4","name":"","type":"bytes4"}],"stateMutability":"pure","type":"function"},{"inputs":[],"name":"owner","outputs":[{"internalType":"address","name":"","type":"address"}],"stateMutability":"view","type":"function"},{"inputs":[{"internalType":"address[]","name":"_trustees","type":"address[]"}],"name":"setTrustees","outputs":[],"stateMutability":"nonpayable","type":"function"},{"inputs":[{"internalType":"uint256[]","name":"_passwordHashes","type":"uint256[]"}],"name":"setTrusteesPasswords","outputs":[],"stateMutability":"nonpayable","type":"function"},{"inputs":[{"internalType":"uint256[2]","name":"a","type":"uint256[2]"},{"internalType":"uint256[2][2]","name":"b","type":"uint256[2][2]"},{"internalType":"uint256[2]","name":"c","type":"uint256[2]"},{"internalType":"uint256[1]","name":"Input","type":"uint256[1]"},{"internalType":"address","name":"newOwner","type":"address"}],"name":"startRecovery","outputs":[{"internalType":"uint256","name":"","type":"uint256"}],"stateMutability":"nonpayable","type":"function"},{"inputs":[{"internalType":"uint256[2]","name":"a","type":"uint256[2]"},{"internalType":"uint256[2][2]","name":"b","type":"uint256[2][2]"},{"internalType":"uint256[2]","name":"c","type":"uint256[2]"},{"internalType":"uint256[2]","name":"input","type":"uint256[2]"}],"name":"verifyOTP","outputs":[{"internalType":"bool","name":"success","type":"bool"}],"stateMutability":"nonpayable","type":"function"},{"inputs":[{"internalType":"uint256[2]","name":"a","type":"uint256[2]"},{"internalType":"uint256[2][2]","name":"b","type":"uint256[2][2]"},{"internalType":"uint256[2]","name":"c","type":"uint256[2]"},{"internalType":"uint256[1]","name":"Input","type":"uint256[1]"},{"internalType":"uint256","name":"recoveryRoundNumber","type":"uint256"}],"name":"voteInRecovery","outputs":[{"internalType":"bool","name":"success","type":"bool"}],"stateMutability":"nonpayable","type":"function"},{"stateMutability":"payable","type":"receive"}],"devdoc":{"kind":"dev","methods":{},"version":1},"evm":{"bytecode":{"linkReferences":{},"object":"60c06040523480156200001157600080fd5b5060405162002191380380620021918339810160408190526200003491620000ef565b60808290526001600160a01b0380821660a05285166200009a5760405162461bcd60e51b815260206004820152601560248201527f5a65726f20616464726573732076657269666965720000000000000000000000604482015260640160405180910390fd5b5050600180546001600160a01b039094166001600160a01b031994851617905560028054909316331790925560035560045562000144565b80516001600160a01b0381168114620000ea57600080fd5b919050565b600080600080600060a086880312156200010857600080fd5b6200011386620000d2565b94506020860151935060408601519250606086015191506200013860808701620000d2565b90509295509295909350565b60805160a0516120276200016a60003960006111b4015260006110c301526120276000f3fe6080604052600436106100e15760003560e01c8063789bcd081161007f578063a9f3402c11610059578063a9f3402c146102c0578063b21fa1ae146102e0578063bb3accf014610300578063e9c4bfe71461032057600080fd5b8063789bcd08146102565780638da5cb5b146102865780639c62291a146102a657600080fd5b806337dc1813116100bb57806337dc1813146101bc5780634b58867f146101de5780634e8a2409146101fe5780634f20804b1461023657600080fd5b8063037133f1146100ed57806307238be314610123578063150b7a021461014757600080fd5b366100e857005b600080fd5b3480156100f957600080fd5b5061010d6101083660046119f0565b610336565b60405161011a9190611aab565b60405180910390f35b34801561012f57600080fd5b5061013960065481565b60405190815260200161011a565b34801561015357600080fd5b5061018b610162366004611ac5565b7f150b7a0200000000000000000000000000000000000000000000000000000000949350505050565b6040517fffffffff00000000000000000000000000000000000000000000000000000000909116815260200161011a565b3480156101c857600080fd5b506101dc6101d7366004611bf3565b61048d565b005b3480156101ea57600080fd5b506101dc6101f9366004611c7a565b61070e565b34801561020a57600080fd5b5061021e610219366004611d10565b61081f565b6040516001600160a01b03909116815260200161011a565b34801561024257600080fd5b50610139610251366004611d29565b610849565b34801561026257600080fd5b50610276610271366004611bf3565b610cf6565b604051901515815260200161011a565b34801561029257600080fd5b5060025461021e906001600160a01b031681565b3480156102b257600080fd5b50600c546102769060ff1681565b3480156102cc57600080fd5b506102766102db366004611d95565b6110bc565b3480156102ec57600080fd5b506101dc6102fb366004611bf3565b61128d565b34801561030c57600080fd5b506101dc61031b366004611def565b6115e3565b34801561032c57600080fd5b5061013960055481565b6002546060906001600160a01b031633146103845760405162461bcd60e51b81526020600482015260096024820152682737ba1027bbb732b960b91b60448201526064015b60405180910390fd5b610390878787876110bc565b6103dc5760405162461bcd60e51b815260206004820152600c60248201527f50726f6f66206661696c65640000000000000000000000000000000000000000604482015260640161037b565b600080846001600160a01b03168460405160006040518083038185875af1925050503d806000811461042a576040519150601f19603f3d011682016040523d82523d6000602084013e61042f565b606091505b5091509150816104815760405162461bcd60e51b815260206004820152601660248201527f65787465726e616c2063616c6c20726576657274656400000000000000000000604482015260640161037b565b98975050505050505050565b6002546001600160a01b031633146104d35760405162461bcd60e51b81526020600482015260096024820152682737ba1027bbb732b960b91b604482015260640161037b565b600c5460ff166105255760405162461bcd60e51b815260206004820152601860248201527f5265636f7665727920686173206e6f7420737461727465640000000000000000604482015260640161037b565b6001546040516343753b4d60e01b815286918691869186916001600160a01b03909116906343753b4d90610563908790879087908790600401611ed3565b602060405180830381865afa158015610580573d6000803e3d6000fd5b505050506040513d601f19601f820116820180604052508101906105a49190611f30565b6105f05760405162461bcd60e51b815260206004820152601760248201527f50617373776f72642070726f6f6620696e76616c696421000000000000000000604482015260640161037b565b83516000908152600b602052604090205460ff16156106415760405162461bcd60e51b815260206004820152600d60248201526c141c9bdbd9881a5cc81d5cd959609a1b604482015260640161037b565b6003548651146106845760405162461bcd60e51b815260206004820152600e60248201526d15dc9bdb99c81c185cdcdddbdc9960921b604482015260640161037b565b600c805460ff191690556002546040518681526001600160a01b03909116907f500ec1d4b692d3c788bfd78a898de379cfd93ab8177575efc7593f87bd051a079060200160405180910390a26001600b600086815b6020020151815260200190815260200160002060006101000a81548160ff021916908315150217905550505050505050505050565b6002546001600160a01b031633146107545760405162461bcd60e51b81526020600482015260096024820152682737ba1027bbb732b960b91b604482015260640161037b565b8051600754146107a65760405162461bcd60e51b815260206004820152601f60248201527f547275737465657320616e6420686173686573206c656e677468206469666600604482015260640161037b565b60005b60075481101561081b578181815181106107c5576107c5611f52565b602002602001015160096000600784815481106107e4576107e4611f52565b60009182526020808320909101546001600160a01b031683528201929092526040019020558061081381611f68565b9150506107a9565b5050565b6007818154811061082f57600080fd5b6000918252602090912001546001600160a01b0316905081565b3360009081526008602052604081205460ff166108965760405162461bcd60e51b815260206004820152600b60248201526a4e6f74205472757374656560a81b604482015260640161037b565b600c5460ff16156108e95760405162461bcd60e51b815260206004820152601660248201527f5265636f7665727920697320696e2070726f6365737300000000000000000000604482015260640161037b565b6001546040516343753b4d60e01b815287918791879187916001600160a01b03909116906343753b4d90610927908790879087908790600401611ed3565b602060405180830381865afa158015610944573d6000803e3d6000fd5b505050506040513d601f19601f820116820180604052508101906109689190611f30565b6109b45760405162461bcd60e51b815260206004820152601760248201527f50617373776f72642070726f6f6620696e76616c696421000000000000000000604482015260640161037b565b83516000908152600b602052604090205460ff1615610a055760405162461bcd60e51b815260206004820152600d60248201526c141c9bdbd9881a5cc81d5cd959609a1b604482015260640161037b565b610a696040518060400160405280600c81526020017f747275737465652068617368000000000000000000000000000000000000000081525060096000336001600160a01b03166001600160a01b0316815260200190815260200160002054611736565b60408051808201909152600581527f496e70757400000000000000000000000000000000000000000000000000000060208201528751610aa99190611736565b33600090815260096020526040902054875114610af95760405162461bcd60e51b815260206004820152600e60248201526d15dc9bdb99c81c185cdcdddbdc9960921b604482015260640161037b565b6001600160a01b038616610b4f5760405162461bcd60e51b815260206004820152600c60248201527f5a65726f20616464726573730000000000000000000000000000000000000000604482015260640161037b565b6001600160a01b0386166000908152600a602052604090205460ff1615610bde5760405162461bcd60e51b815260206004820152602260248201527f4f776e65722073686f756c64206e6f742062652061207061737420616464726560448201527f7373000000000000000000000000000000000000000000000000000000000000606482015260840161037b565b60058054906000610bee83611f68565b90915550506005546000908152600d6020526040812060018101805473ffffffffffffffffffffffffffffffffffffffff19166001600160a01b038a16179055805490918290610c3d83611f68565b90915550503360008181526002830160209081526040918290208054600160ff199182168117909255600c8054909116909117905560055491519182526001600160a01b038a16917f4ae23dc2e5f7892600076b48a0cfdbcc206c2aba4e323da13765339b2b8978d8910160405180910390a36005549550506001600b600086815b6020020151815260200190815260200160002060006101000a81548160ff0219169083151502179055505050505095945050505050565b3360009081526008602052604081205460ff16610d435760405162461bcd60e51b815260206004820152600b60248201526a4e6f74205472757374656560a81b604482015260640161037b565b600c5460ff16610d955760405162461bcd60e51b815260206004820152601860248201527f5265636f7665727920686173206e6f7420737461727465640000000000000000604482015260640161037b565b6001546040516343753b4d60e01b815287918791879187916001600160a01b03909116906343753b4d90610dd3908790879087908790600401611ed3565b602060405180830381865afa158015610df0573d6000803e3d6000fd5b505050506040513d601f19601f82011682018060405250810190610e149190611f30565b610e605760405162461bcd60e51b815260206004820152601760248201527f50617373776f72642070726f6f6620696e76616c696421000000000000000000604482015260640161037b565b83516000908152600b602052604090205460ff1615610eb15760405162461bcd60e51b815260206004820152600d60248201526c141c9bdbd9881a5cc81d5cd959609a1b604482015260640161037b565b33600090815260096020526040902054875114610f015760405162461bcd60e51b815260206004820152600e60248201526d15dc9bdb99c81c185cdcdddbdc9960921b604482015260640161037b565b610f3f6040518060400160405280600581526020017f48657265310000000000000000000000000000000000000000000000000000008152506117a9565b600554861115610f915760405162461bcd60e51b815260206004820152601b60248201527f57726f6e67205265636f7665727920726f756e64206e756d6265720000000000604482015260640161037b565b610fcf6040518060400160405280600481526020017f48657265000000000000000000000000000000000000000000000000000000008152506117a9565b6000868152600d60209081526040808320338452600281019092529091205460ff161561103e5760405162461bcd60e51b815260206004820152601560248201527f5472757374656520616c726561647920766f7465640000000000000000000000604482015260640161037b565b805481600061104c83611f68565b909155505033600081815260028301602052604090819020805460ff1916600190811790915590519097507f7f7906f4f6e51fac746e81b4885d9775eb44445765139416bcd03b12b262968a906110a6908a815260200190565b60405180910390a2506001600b60008681610cbf565b80516000907f00000000000000000000000000000000000000000000000000000000000000001461112f5760405162461bcd60e51b815260206004820152600e60248201527f496e636f6f7265637420726f6f74000000000000000000000000000000000000604482015260640161037b565b6000546020830151116111845760405162461bcd60e51b815260206004820152600960248201527f4f6c642050726f6f660000000000000000000000000000000000000000000000604482015260640161037b565b6040517ff5c9d69e0000000000000000000000000000000000000000000000000000000081526001600160a01b037f0000000000000000000000000000000000000000000000000000000000000000169063f5c9d69e906111ef908890889088908890600401611f8f565b602060405180830381865afa15801561120c573d6000803e3d6000fd5b505050506040513d601f19601f820116820180604052508101906112309190611f30565b61127c5760405162461bcd60e51b815260206004820152600d60248201527f496e76616c69642070726f6f6600000000000000000000000000000000000000604482015260640161037b565b506020015160005550600192915050565b3360009081526008602052604090205460ff166112da5760405162461bcd60e51b815260206004820152600b60248201526a4e6f74205472757374656560a81b604482015260640161037b565b600c5460ff1661132c5760405162461bcd60e51b815260206004820152601860248201527f5265636f7665727920686173206e6f7420737461727465640000000000000000604482015260640161037b565b6001546040516343753b4d60e01b815286918691869186916001600160a01b03909116906343753b4d9061136a908790879087908790600401611ed3565b602060405180830381865afa158015611387573d6000803e3d6000fd5b505050506040513d601f19601f820116820180604052508101906113ab9190611f30565b6113f75760405162461bcd60e51b815260206004820152601760248201527f50617373776f72642070726f6f6620696e76616c696421000000000000000000604482015260640161037b565b83516000908152600b602052604090205460ff16156114485760405162461bcd60e51b815260206004820152600d60248201526c141c9bdbd9881a5cc81d5cd959609a1b604482015260640161037b565b336000908152600960205260409020548651146114985760405162461bcd60e51b815260206004820152600e60248201526d15dc9bdb99c81c185cdcdddbdc9960921b604482015260640161037b565b6000858152600d60205260409020600454815410156114f95760405162461bcd60e51b815260206004820152601060248201527f566f746573204e6f7420656e6f75676800000000000000000000000000000000604482015260640161037b565b600181810180547fffffffffffffffffffffff00ffffffffffffffffffffffffffffffffffffffff1674010000000000000000000000000000000000000000178155600c805460ff1990811690915560028054925473ffffffffffffffffffffffffffffffffffffffff1984166001600160a01b0391821690811783556000908152600a602052604090819020805490941690951790925554925191811692169082907fcbaa7c7c351e2d5655fc08d9c383adcf4736af160c800b53df1f1dd221f826c8906115cb908b815260200190565b60405180910390a35060019050600b600086816106d9565b6002546001600160a01b031633146116295760405162461bcd60e51b81526020600482015260096024820152682737ba1027bbb732b960b91b604482015260640161037b565b60005b815181101561171b576008600083838151811061164b5761164b611f52565b6020908102919091018101516001600160a01b031682528101919091526040016000205460ff16156116bf5760405162461bcd60e51b815260206004820152601960248201527f4475706c6963617465207472757374656520696e206c69737400000000000000604482015260640161037b565b6001600860008484815181106116d7576116d7611f52565b6020908102919091018101516001600160a01b03168252810191909152604001600020805460ff19169115159190911790558061171381611f68565b91505061162c565b50805161172f90600790602084019061183e565b5051600655565b61081b828260405160240161174c929190611fcf565b60408051601f198184030181529190526020810180517bffffffffffffffffffffffffffffffffffffffffffffffffffffffff167fb60e72cc0000000000000000000000000000000000000000000000000000000017905261181d565b61181a816040516024016117bd9190611aab565b60408051601f198184030181529190526020810180517bffffffffffffffffffffffffffffffffffffffffffffffffffffffff167f41304fac0000000000000000000000000000000000000000000000000000000017905261181d565b50565b80516a636f6e736f6c652e6c6f67602083016000808483855afa5050505050565b8280548282559060005260206000209081019282156118a0579160200282015b828111156118a0578251825473ffffffffffffffffffffffffffffffffffffffff19166001600160a01b0390911617825560209092019160019091019061185e565b506118ac9291506118b0565b5090565b5b808211156118ac57600081556001016118b1565b634e487b7160e01b600052604160045260246000fd5b6040805190810167ffffffffffffffff811182821017156118fe576118fe6118c5565b60405290565b604051601f8201601f1916810167ffffffffffffffff8111828210171561192d5761192d6118c5565b604052919050565b600082601f83011261194657600080fd5b61194e6118db565b80604084018581111561196057600080fd5b845b8181101561197a578035845260209384019301611962565b509095945050505050565b600082601f83011261199657600080fd5b61199e6118db565b8060808401858111156119b057600080fd5b845b8181101561197a576119c48782611935565b84526020909301926040016119b2565b80356001600160a01b03811681146119eb57600080fd5b919050565b6000806000806000806101808789031215611a0a57600080fd5b611a148888611935565b9550611a238860408901611985565b9450611a328860c08901611935565b9350611a42886101008901611935565b9250611a5161014088016119d4565b915061016087013590509295509295509295565b6000815180845260005b81811015611a8b57602081850181015186830182015201611a6f565b506000602082860101526020601f19601f83011685010191505092915050565b602081526000611abe6020830184611a65565b9392505050565b60008060008060808587031215611adb57600080fd5b611ae4856119d4565b93506020611af38187016119d4565b935060408601359250606086013567ffffffffffffffff80821115611b1757600080fd5b818801915088601f830112611b2b57600080fd5b813581811115611b3d57611b3d6118c5565b611b4f601f8201601f19168501611904565b91508082528984828501011115611b6557600080fd5b808484018584013760008482840101525080935050505092959194509250565b600082601f830112611b9657600080fd5b604051602080820182811067ffffffffffffffff82111715611bba57611bba6118c5565b6040528184820186811115611bce57600080fd5b855b81811015611be75780358352918301918301611bd0565b50929695505050505050565b60008060008060006101408688031215611c0c57600080fd5b611c168787611935565b9450611c258760408801611985565b9350611c348760c08801611935565b9250611c44876101008801611b85565b94979396509194610120013592915050565b600067ffffffffffffffff821115611c7057611c706118c5565b5060051b60200190565b60006020808385031215611c8d57600080fd5b823567ffffffffffffffff811115611ca457600080fd5b8301601f81018513611cb557600080fd5b8035611cc8611cc382611c56565b611904565b81815260059190911b82018301908381019087831115611ce757600080fd5b928401925b82841015611d0557833582529284019290840190611cec565b979650505050505050565b600060208284031215611d2257600080fd5b5035919050565b60008060008060006101408688031215611d4257600080fd5b611d4c8787611935565b9450611d5b8760408801611985565b9350611d6a8760c08801611935565b9250611d7a876101008801611b85565b9150611d8961012087016119d4565b90509295509295909350565b6000806000806101408587031215611dac57600080fd5b611db68686611935565b9350611dc58660408701611985565b9250611dd48660c08701611935565b9150611de4866101008701611935565b905092959194509250565b60006020808385031215611e0257600080fd5b823567ffffffffffffffff811115611e1957600080fd5b8301601f81018513611e2a57600080fd5b8035611e38611cc382611c56565b81815260059190911b82018301908381019087831115611e5757600080fd5b928401925b82841015611d0557611e6d846119d4565b82529284019290840190611e5c565b8060005b6002811015611e9f578151845260209384019390910190600101611e80565b50505050565b8060005b6002811015611e9f57611ebd848351611e7c565b6040939093019260209190910190600101611ea9565b6101208101611ee28287611e7c565b611eef6040830186611ea5565b611efc60c0830185611e7c565b61010082018360005b6001811015611f24578151835260209283019290910190600101611f05565b50505095945050505050565b600060208284031215611f4257600080fd5b81518015158114611abe57600080fd5b634e487b7160e01b600052603260045260246000fd5b600060018201611f8857634e487b7160e01b600052601160045260246000fd5b5060010190565b6101408101611f9e8287611e7c565b611fab6040830186611ea5565b611fb860c0830185611e7c565b611fc6610100830184611e7c565b95945050505050565b604081526000611fe26040830185611a65565b9050826020830152939250505056fea26469706673582212204ec240d4dd206f34579699eb5a702268b5ba508273d8f6eca04d0b4225ef80ae64736f6c63430008110033","opcodes":"PUSH1 0xC0 PUSH1 0x40 MSTORE CALLVALUE DUP1 ISZERO PUSH3 0x11 JUMPI PUSH1 0x0 DUP1 REVERT JUMPDEST POP PUSH1 0x40 MLOAD PUSH3 0x2191 CODESIZE SUB DUP1 PUSH3 0x2191 DUP4 CODECOPY DUP2 ADD PUSH1 0x40 DUP2 SWAP1 MSTORE PUSH3 0x34 SWAP2 PUSH3 0xEF JUMP JUMPDEST PUSH1 0x80 DUP3 SWAP1 MSTORE PUSH1 0x1 PUSH1 0x1 PUSH1 0xA0 SHL SUB DUP1 DUP3 AND PUSH1 0xA0 MSTORE DUP6 AND PUSH3 0x9A JUMPI PUSH1 0x40 MLOAD PUSH3 0x461BCD PUSH1 0xE5 SHL DUP2 MSTORE PUSH1 0x20 PUSH1 0x4 DUP3 ADD MSTORE PUSH1 0x15 PUSH1 0x24 DUP3 ADD MSTORE PUSH32 0x5A65726F20616464726573732076657269666965720000000000000000000000 PUSH1 0x44 DUP3 ADD MSTORE PUSH1 0x64 ADD PUSH1 0x40 MLOAD DUP1 SWAP2 SUB SWAP1 REVERT JUMPDEST POP POP PUSH1 0x1 DUP1 SLOAD PUSH1 0x1 PUSH1 0x1 PUSH1 0xA0 SHL SUB SWAP1 SWAP5 AND PUSH1 0x1 PUSH1 0x1 PUSH1 0xA0 SHL SUB NOT SWAP5 DUP6 AND OR SWAP1 SSTORE PUSH1 0x2 DUP1 SLOAD SWAP1 SWAP4 AND CALLER OR SWAP1 SWAP3 SSTORE PUSH1 0x3 SSTORE PUSH1 0x4 SSTORE PUSH3 0x144 JUMP JUMPDEST DUP1 MLOAD PUSH1 0x1 PUSH1 0x1 PUSH1 0xA0 SHL SUB DUP2 AND DUP2 EQ PUSH3 0xEA JUMPI PUSH1 0x0 DUP1 REVERT JUMPDEST SWAP2 SWAP1 POP JUMP JUMPDEST PUSH1 0x0 DUP1 PUSH1 0x0 DUP1 PUSH1 0x0 PUSH1 0xA0 DUP7 DUP9 SUB SLT ISZERO PUSH3 0x108 JUMPI PUSH1 0x0 DUP1 REVERT JUMPDEST PUSH3 0x113 DUP7 PUSH3 0xD2 JUMP JUMPDEST SWAP5 POP PUSH1 0x20 DUP7 ADD MLOAD SWAP4 POP PUSH1 0x40 DUP7 ADD MLOAD SWAP3 POP PUSH1 0x60 DUP7 ADD MLOAD SWAP2 POP PUSH3 0x138 PUSH1 0x80 DUP8 ADD PUSH3 0xD2 JUMP JUMPDEST SWAP1 POP SWAP3 SWAP6 POP SWAP3 SWAP6 SWAP1 SWAP4 POP JUMP JUMPDEST PUSH1 0x80 MLOAD PUSH1 0xA0 MLOAD PUSH2 0x2027 PUSH3 0x16A PUSH1 0x0 CODECOPY PUSH1 0x0 PUSH2 0x11B4 ADD MSTORE PUSH1 0x0 PUSH2 0x10C3 ADD MSTORE PUSH2 0x2027 PUSH1 0x0 RETURN INVALID PUSH1 0x80 PUSH1 0x40 MSTORE PUSH1 0x4 CALLDATASIZE LT PUSH2 0xE1 JUMPI PUSH1 0x0 CALLDATALOAD PUSH1 0xE0 SHR DUP1 PUSH4 0x789BCD08 GT PUSH2 0x7F JUMPI DUP1 PUSH4 0xA9F3402C GT PUSH2 0x59 JUMPI DUP1 PUSH4 0xA9F3402C EQ PUSH2 0x2C0 JUMPI DUP1 PUSH4 0xB21FA1AE EQ PUSH2 0x2E0 JUMPI DUP1 PUSH4 0xBB3ACCF0 EQ PUSH2 0x300 JUMPI DUP1 PUSH4 0xE9C4BFE7 EQ PUSH2 0x320 JUMPI PUSH1 0x0 DUP1 REVERT JUMPDEST DUP1 PUSH4 0x789BCD08 EQ PUSH2 0x256 JUMPI DUP1 PUSH4 0x8DA5CB5B EQ PUSH2 0x286 JUMPI DUP1 PUSH4 0x9C62291A EQ PUSH2 0x2A6 JUMPI PUSH1 0x0 DUP1 REVERT JUMPDEST DUP1 PUSH4 0x37DC1813 GT PUSH2 0xBB JUMPI DUP1 PUSH4 0x37DC1813 EQ PUSH2 0x1BC JUMPI DUP1 PUSH4 0x4B58867F EQ PUSH2 0x1DE JUMPI DUP1 PUSH4 0x4E8A2409 EQ PUSH2 0x1FE JUMPI DUP1 PUSH4 0x4F20804B EQ PUSH2 0x236 JUMPI PUSH1 0x0 DUP1 REVERT JUMPDEST DUP1 PUSH4 0x37133F1 EQ PUSH2 0xED JUMPI DUP1 PUSH4 0x7238BE3 EQ PUSH2 0x123 JUMPI DUP1 PUSH4 0x150B7A02 EQ PUSH2 0x147 JUMPI PUSH1 0x0 DUP1 REVERT JUMPDEST CALLDATASIZE PUSH2 0xE8 JUMPI STOP JUMPDEST PUSH1 0x0 DUP1 REVERT JUMPDEST CALLVALUE DUP1 ISZERO PUSH2 0xF9 JUMPI PUSH1 0x0 DUP1 REVERT JUMPDEST POP PUSH2 0x10D PUSH2 0x108 CALLDATASIZE PUSH1 0x4 PUSH2 0x19F0 JUMP JUMPDEST PUSH2 0x336 JUMP JUMPDEST PUSH1 0x40 MLOAD PUSH2 0x11A SWAP2 SWAP1 PUSH2 0x1AAB JUMP JUMPDEST PUSH1 0x40 MLOAD DUP1 SWAP2 SUB SWAP1 RETURN JUMPDEST CALLVALUE DUP1 ISZERO PUSH2 0x12F JUMPI PUSH1 0x0 DUP1 REVERT JUMPDEST POP PUSH2 0x139 PUSH1 0x6 SLOAD DUP2 JUMP JUMPDEST PUSH1 0x40 MLOAD SWAP1 DUP2 MSTORE PUSH1 0x20 ADD PUSH2 0x11A JUMP JUMPDEST CALLVALUE DUP1 ISZERO PUSH2 0x153 JUMPI PUSH1 0x0 DUP1 REVERT JUMPDEST POP PUSH2 0x18B PUSH2 0x162 CALLDATASIZE PUSH1 0x4 PUSH2 0x1AC5 JUMP JUMPDEST PUSH32 0x150B7A0200000000000000000000000000000000000000000000000000000000 SWAP5 SWAP4 POP POP POP POP JUMP JUMPDEST PUSH1 0x40 MLOAD PUSH32 0xFFFFFFFF00000000000000000000000000000000000000000000000000000000 SWAP1 SWAP2 AND DUP2 MSTORE PUSH1 0x20 ADD PUSH2 0x11A JUMP JUMPDEST CALLVALUE DUP1 ISZERO PUSH2 0x1C8 JUMPI PUSH1 0x0 DUP1 REVERT JUMPDEST POP PUSH2 0x1DC PUSH2 0x1D7 CALLDATASIZE PUSH1 0x4 PUSH2 0x1BF3 JUMP JUMPDEST PUSH2 0x48D JUMP JUMPDEST STOP JUMPDEST CALLVALUE DUP1 ISZERO PUSH2 0x1EA JUMPI PUSH1 0x0 DUP1 REVERT JUMPDEST POP PUSH2 0x1DC PUSH2 0x1F9 CALLDATASIZE PUSH1 0x4 PUSH2 0x1C7A JUMP JUMPDEST PUSH2 0x70E JUMP JUMPDEST CALLVALUE DUP1 ISZERO PUSH2 0x20A JUMPI PUSH1 0x0 DUP1 REVERT JUMPDEST POP PUSH2 0x21E PUSH2 0x219 CALLDATASIZE PUSH1 0x4 PUSH2 0x1D10 JUMP JUMPDEST PUSH2 0x81F JUMP JUMPDEST PUSH1 0x40 MLOAD PUSH1 0x1 PUSH1 0x1 PUSH1 0xA0 SHL SUB SWAP1 SWAP2 AND DUP2 MSTORE PUSH1 0x20 ADD PUSH2 0x11A JUMP JUMPDEST CALLVALUE DUP1 ISZERO PUSH2 0x242 JUMPI PUSH1 0x0 DUP1 REVERT JUMPDEST POP PUSH2 0x139 PUSH2 0x251 CALLDATASIZE PUSH1 0x4 PUSH2 0x1D29 JUMP JUMPDEST PUSH2 0x849 JUMP JUMPDEST CALLVALUE DUP1 ISZERO PUSH2 0x262 JUMPI PUSH1 0x0 DUP1 REVERT JUMPDEST POP PUSH2 0x276 PUSH2 0x271 CALLDATASIZE PUSH1 0x4 PUSH2 0x1BF3 JUMP JUMPDEST PUSH2 0xCF6 JUMP JUMPDEST PUSH1 0x40 MLOAD SWAP1 ISZERO ISZERO DUP2 MSTORE PUSH1 0x20 ADD PUSH2 0x11A JUMP JUMPDEST CALLVALUE DUP1 ISZERO PUSH2 0x292 JUMPI PUSH1 0x0 DUP1 REVERT JUMPDEST POP PUSH1 0x2 SLOAD PUSH2 0x21E SWAP1 PUSH1 0x1 PUSH1 0x1 PUSH1 0xA0 SHL SUB AND DUP2 JUMP JUMPDEST CALLVALUE DUP1 ISZERO PUSH2 0x2B2 JUMPI PUSH1 0x0 DUP1 REVERT JUMPDEST POP PUSH1 0xC SLOAD PUSH2 0x276 SWAP1 PUSH1 0xFF AND DUP2 JUMP JUMPDEST CALLVALUE DUP1 ISZERO PUSH2 0x2CC JUMPI PUSH1 0x0 DUP1 REVERT JUMPDEST POP PUSH2 0x276 PUSH2 0x2DB CALLDATASIZE PUSH1 0x4 PUSH2 0x1D95 JUMP JUMPDEST PUSH2 0x10BC JUMP JUMPDEST CALLVALUE DUP1 ISZERO PUSH2 0x2EC JUMPI PUSH1 0x0 DUP1 REVERT JUMPDEST POP PUSH2 0x1DC PUSH2 0x2FB CALLDATASIZE PUSH1 0x4 PUSH2 0x1BF3 JUMP JUMPDEST PUSH2 0x128D JUMP JUMPDEST CALLVALUE DUP1 ISZERO PUSH2 0x30C JUMPI PUSH1 0x0 DUP1 REVERT JUMPDEST POP PUSH2 0x1DC PUSH2 0x31B CALLDATASIZE PUSH1 0x4 PUSH2 0x1DEF JUMP JUMPDEST PUSH2 0x15E3 JUMP JUMPDEST CALLVALUE DUP1 ISZERO PUSH2 0x32C JUMPI PUSH1 0x0 DUP1 REVERT JUMPDEST POP PUSH2 0x139 PUSH1 0x5 SLOAD DUP2 JUMP JUMPDEST PUSH1 0x2 SLOAD PUSH1 0x60 SWAP1 PUSH1 0x1 PUSH1 0x1 PUSH1 0xA0 SHL SUB AND CALLER EQ PUSH2 0x384 JUMPI PUSH1 0x40 MLOAD PUSH3 0x461BCD PUSH1 0xE5 SHL DUP2 MSTORE PUSH1 0x20 PUSH1 0x4 DUP3 ADD MSTORE PUSH1 0x9 PUSH1 0x24 DUP3 ADD MSTORE PUSH9 0x2737BA1027BBB732B9 PUSH1 0xB9 SHL PUSH1 0x44 DUP3 ADD MSTORE PUSH1 0x64 ADD JUMPDEST PUSH1 0x40 MLOAD DUP1 SWAP2 SUB SWAP1 REVERT JUMPDEST PUSH2 0x390 DUP8 DUP8 DUP8 DUP8 PUSH2 0x10BC JUMP JUMPDEST PUSH2 0x3DC JUMPI PUSH1 0x40 MLOAD PUSH3 0x461BCD PUSH1 0xE5 SHL DUP2 MSTORE PUSH1 0x20 PUSH1 0x4 DUP3 ADD MSTORE PUSH1 0xC PUSH1 0x24 DUP3 ADD MSTORE PUSH32 0x50726F6F66206661696C65640000000000000000000000000000000000000000 PUSH1 0x44 DUP3 ADD MSTORE PUSH1 0x64 ADD PUSH2 0x37B JUMP JUMPDEST PUSH1 0x0 DUP1 DUP5 PUSH1 0x1 PUSH1 0x1 PUSH1 0xA0 SHL SUB AND DUP5 PUSH1 0x40 MLOAD PUSH1 0x0 PUSH1 0x40 MLOAD DUP1 DUP4 SUB DUP2 DUP6 DUP8 GAS CALL SWAP3 POP POP POP RETURNDATASIZE DUP1 PUSH1 0x0 DUP2 EQ PUSH2 0x42A JUMPI PUSH1 0x40 MLOAD SWAP2 POP PUSH1 0x1F NOT PUSH1 0x3F RETURNDATASIZE ADD AND DUP3 ADD PUSH1 0x40 MSTORE RETURNDATASIZE DUP3 MSTORE RETURNDATASIZE PUSH1 0x0 PUSH1 0x20 DUP5 ADD RETURNDATACOPY PUSH2 0x42F JUMP JUMPDEST PUSH1 0x60 SWAP2 POP JUMPDEST POP SWAP2 POP SWAP2 POP DUP2 PUSH2 0x481 JUMPI PUSH1 0x40 MLOAD PUSH3 0x461BCD PUSH1 0xE5 SHL DUP2 MSTORE PUSH1 0x20 PUSH1 0x4 DUP3 ADD MSTORE PUSH1 0x16 PUSH1 0x24 DUP3 ADD MSTORE PUSH32 0x65787465726E616C2063616C6C20726576657274656400000000000000000000 PUSH1 0x44 DUP3 ADD MSTORE PUSH1 0x64 ADD PUSH2 0x37B JUMP JUMPDEST SWAP9 SWAP8 POP POP POP POP POP POP POP POP JUMP JUMPDEST PUSH1 0x2 SLOAD PUSH1 0x1 PUSH1 0x1 PUSH1 0xA0 SHL SUB AND CALLER EQ PUSH2 0x4D3 JUMPI PUSH1 0x40 MLOAD PUSH3 0x461BCD PUSH1 0xE5 SHL DUP2 MSTORE PUSH1 0x20 PUSH1 0x4 DUP3 ADD MSTORE PUSH1 0x9 PUSH1 0x24 DUP3 ADD MSTORE PUSH9 0x2737BA1027BBB732B9 PUSH1 0xB9 SHL PUSH1 0x44 DUP3 ADD MSTORE PUSH1 0x64 ADD PUSH2 0x37B JUMP JUMPDEST PUSH1 0xC SLOAD PUSH1 0xFF AND PUSH2 0x525 JUMPI PUSH1 0x40 MLOAD PUSH3 0x461BCD PUSH1 0xE5 SHL DUP2 MSTORE PUSH1 0x20 PUSH1 0x4 DUP3 ADD MSTORE PUSH1 0x18 PUSH1 0x24 DUP3 ADD MSTORE PUSH32 0x5265636F7665727920686173206E6F7420737461727465640000000000000000 PUSH1 0x44 DUP3 ADD MSTORE PUSH1 0x64 ADD PUSH2 0x37B JUMP JUMPDEST PUSH1 0x1 SLOAD PUSH1 0x40 MLOAD PUSH4 0x43753B4D PUSH1 0xE0 SHL DUP2 MSTORE DUP7 SWAP2 DUP7 SWAP2 DUP7 SWAP2 DUP7 SWAP2 PUSH1 0x1 PUSH1 0x1 PUSH1 0xA0 SHL SUB SWAP1 SWAP2 AND SWAP1 PUSH4 0x43753B4D SWAP1 PUSH2 0x563 SWAP1 DUP8 SWAP1 DUP8 SWAP1 DUP8 SWAP1 DUP8 SWAP1 PUSH1 0x4 ADD PUSH2 0x1ED3 JUMP JUMPDEST PUSH1 0x20 PUSH1 0x40 MLOAD DUP1 DUP4 SUB DUP2 DUP7 GAS STATICCALL ISZERO DUP1 ISZERO PUSH2 0x580 JUMPI RETURNDATASIZE PUSH1 0x0 DUP1 RETURNDATACOPY RETURNDATASIZE PUSH1 0x0 REVERT JUMPDEST POP POP POP POP PUSH1 0x40 MLOAD RETURNDATASIZE PUSH1 0x1F NOT PUSH1 0x1F DUP3 ADD AND DUP3 ADD DUP1 PUSH1 0x40 MSTORE POP DUP2 ADD SWAP1 PUSH2 0x5A4 SWAP2 SWAP1 PUSH2 0x1F30 JUMP JUMPDEST PUSH2 0x5F0 JUMPI PUSH1 0x40 MLOAD PUSH3 0x461BCD PUSH1 0xE5 SHL DUP2 MSTORE PUSH1 0x20 PUSH1 0x4 DUP3 ADD MSTORE PUSH1 0x17 PUSH1 0x24 DUP3 ADD MSTORE PUSH32 0x50617373776F72642070726F6F6620696E76616C696421000000000000000000 PUSH1 0x44 DUP3 ADD MSTORE PUSH1 0x64 ADD PUSH2 0x37B JUMP JUMPDEST DUP4 MLOAD PUSH1 0x0 SWAP1 DUP2 MSTORE PUSH1 0xB PUSH1 0x20 MSTORE PUSH1 0x40 SWAP1 KECCAK256 SLOAD PUSH1 0xFF AND ISZERO PUSH2 0x641 JUMPI PUSH1 0x40 MLOAD PUSH3 0x461BCD PUSH1 0xE5 SHL DUP2 MSTORE PUSH1 0x20 PUSH1 0x4 DUP3 ADD MSTORE PUSH1 0xD PUSH1 0x24 DUP3 ADD MSTORE PUSH13 0x141C9BDBD9881A5CC81D5CD959 PUSH1 0x9A SHL PUSH1 0x44 DUP3 ADD MSTORE PUSH1 0x64 ADD PUSH2 0x37B JUMP JUMPDEST PUSH1 0x3 SLOAD DUP7 MLOAD EQ PUSH2 0x684 JUMPI PUSH1 0x40 MLOAD PUSH3 0x461BCD PUSH1 0xE5 SHL DUP2 MSTORE PUSH1 0x20 PUSH1 0x4 DUP3 ADD MSTORE PUSH1 0xE PUSH1 0x24 DUP3 ADD MSTORE PUSH14 0x15DC9BDB99C81C185CDCDDDBDC99 PUSH1 0x92 SHL PUSH1 0x44 DUP3 ADD MSTORE PUSH1 0x64 ADD PUSH2 0x37B JUMP JUMPDEST PUSH1 0xC DUP1 SLOAD PUSH1 0xFF NOT AND SWAP1 SSTORE PUSH1 0x2 SLOAD PUSH1 0x40 MLOAD DUP7 DUP2 MSTORE PUSH1 0x1 PUSH1 0x1 PUSH1 0xA0 SHL SUB SWAP1 SWAP2 AND SWAP1 PUSH32 0x500EC1D4B692D3C788BFD78A898DE379CFD93AB8177575EFC7593F87BD051A07 SWAP1 PUSH1 0x20 ADD PUSH1 0x40 MLOAD DUP1 SWAP2 SUB SWAP1 LOG2 PUSH1 0x1 PUSH1 0xB PUSH1 0x0 DUP7 DUP2 JUMPDEST PUSH1 0x20 MUL ADD MLOAD DUP2 MSTORE PUSH1 0x20 ADD SWAP1 DUP2 MSTORE PUSH1 0x20 ADD PUSH1 0x0 KECCAK256 PUSH1 0x0 PUSH2 0x100 EXP DUP2 SLOAD DUP2 PUSH1 0xFF MUL NOT AND SWAP1 DUP4 ISZERO ISZERO MUL OR SWAP1 SSTORE POP POP POP POP POP POP POP POP POP POP JUMP JUMPDEST PUSH1 0x2 SLOAD PUSH1 0x1 PUSH1 0x1 PUSH1 0xA0 SHL SUB AND CALLER EQ PUSH2 0x754 JUMPI PUSH1 0x40 MLOAD PUSH3 0x461BCD PUSH1 0xE5 SHL DUP2 MSTORE PUSH1 0x20 PUSH1 0x4 DUP3 ADD MSTORE PUSH1 0x9 PUSH1 0x24 DUP3 ADD MSTORE PUSH9 0x2737BA1027BBB732B9 PUSH1 0xB9 SHL PUSH1 0x44 DUP3 ADD MSTORE PUSH1 0x64 ADD PUSH2 0x37B JUMP JUMPDEST DUP1 MLOAD PUSH1 0x7 SLOAD EQ PUSH2 0x7A6 JUMPI PUSH1 0x40 MLOAD PUSH3 0x461BCD PUSH1 0xE5 SHL DUP2 MSTORE PUSH1 0x20 PUSH1 0x4 DUP3 ADD MSTORE PUSH1 0x1F PUSH1 0x24 DUP3 ADD MSTORE PUSH32 0x547275737465657320616E6420686173686573206C656E677468206469666600 PUSH1 0x44 DUP3 ADD MSTORE PUSH1 0x64 ADD PUSH2 0x37B JUMP JUMPDEST PUSH1 0x0 JUMPDEST PUSH1 0x7 SLOAD DUP2 LT ISZERO PUSH2 0x81B JUMPI DUP2 DUP2 DUP2 MLOAD DUP2 LT PUSH2 0x7C5 JUMPI PUSH2 0x7C5 PUSH2 0x1F52 JUMP JUMPDEST PUSH1 0x20 MUL PUSH1 0x20 ADD ADD MLOAD PUSH1 0x9 PUSH1 0x0 PUSH1 0x7 DUP5 DUP2 SLOAD DUP2 LT PUSH2 0x7E4 JUMPI PUSH2 0x7E4 PUSH2 0x1F52 JUMP JUMPDEST PUSH1 0x0 SWAP2 DUP3 MSTORE PUSH1 0x20 DUP1 DUP4 KECCAK256 SWAP1 SWAP2 ADD SLOAD PUSH1 0x1 PUSH1 0x1 PUSH1 0xA0 SHL SUB AND DUP4 MSTORE DUP3 ADD SWAP3 SWAP1 SWAP3 MSTORE PUSH1 0x40 ADD SWAP1 KECCAK256 SSTORE DUP1 PUSH2 0x813 DUP2 PUSH2 0x1F68 JUMP JUMPDEST SWAP2 POP POP PUSH2 0x7A9 JUMP JUMPDEST POP POP JUMP JUMPDEST PUSH1 0x7 DUP2 DUP2 SLOAD DUP2 LT PUSH2 0x82F JUMPI PUSH1 0x0 DUP1 REVERT JUMPDEST PUSH1 0x0 SWAP2 DUP3 MSTORE PUSH1 0x20 SWAP1 SWAP2 KECCAK256 ADD SLOAD PUSH1 0x1 PUSH1 0x1 PUSH1 0xA0 SHL SUB AND SWAP1 POP DUP2 JUMP JUMPDEST CALLER PUSH1 0x0 SWAP1 DUP2 MSTORE PUSH1 0x8 PUSH1 0x20 MSTORE PUSH1 0x40 DUP2 KECCAK256 SLOAD PUSH1 0xFF AND PUSH2 0x896 JUMPI PUSH1 0x40 MLOAD PUSH3 0x461BCD PUSH1 0xE5 SHL DUP2 MSTORE PUSH1 0x20 PUSH1 0x4 DUP3 ADD MSTORE PUSH1 0xB PUSH1 0x24 DUP3 ADD MSTORE PUSH11 0x4E6F742054727573746565 PUSH1 0xA8 SHL PUSH1 0x44 DUP3 ADD MSTORE PUSH1 0x64 ADD PUSH2 0x37B JUMP JUMPDEST PUSH1 0xC SLOAD PUSH1 0xFF AND ISZERO PUSH2 0x8E9 JUMPI PUSH1 0x40 MLOAD PUSH3 0x461BCD PUSH1 0xE5 SHL DUP2 MSTORE PUSH1 0x20 PUSH1 0x4 DUP3 ADD MSTORE PUSH1 0x16 PUSH1 0x24 DUP3 ADD MSTORE PUSH32 0x5265636F7665727920697320696E2070726F6365737300000000000000000000 PUSH1 0x44 DUP3 ADD MSTORE PUSH1 0x64 ADD PUSH2 0x37B JUMP JUMPDEST PUSH1 0x1 SLOAD PUSH1 0x40 MLOAD PUSH4 0x43753B4D PUSH1 0xE0 SHL DUP2 MSTORE DUP8 SWAP2 DUP8 SWAP2 DUP8 SWAP2 DUP8 SWAP2 PUSH1 0x1 PUSH1 0x1 PUSH1 0xA0 SHL SUB SWAP1 SWAP2 AND SWAP1 PUSH4 0x43753B4D SWAP1 PUSH2 0x927 SWAP1 DUP8 SWAP1 DUP8 SWAP1 DUP8 SWAP1 DUP8 SWAP1 PUSH1 0x4 ADD PUSH2 0x1ED3 JUMP JUMPDEST PUSH1 0x20 PUSH1 0x40 MLOAD DUP1 DUP4 SUB DUP2 DUP7 GAS STATICCALL ISZERO DUP1 ISZERO PUSH2 0x944 JUMPI RETURNDATASIZE PUSH1 0x0 DUP1 RETURNDATACOPY RETURNDATASIZE PUSH1 0x0 REVERT JUMPDEST POP POP POP POP PUSH1 0x40 MLOAD RETURNDATASIZE PUSH1 0x1F NOT PUSH1 0x1F DUP3 ADD AND DUP3 ADD DUP1 PUSH1 0x40 MSTORE POP DUP2 ADD SWAP1 PUSH2 0x968 SWAP2 SWAP1 PUSH2 0x1F30 JUMP JUMPDEST PUSH2 0x9B4 JUMPI PUSH1 0x40 MLOAD PUSH3 0x461BCD PUSH1 0xE5 SHL DUP2 MSTORE PUSH1 0x20 PUSH1 0x4 DUP3 ADD MSTORE PUSH1 0x17 PUSH1 0x24 DUP3 ADD MSTORE PUSH32 0x50617373776F72642070726F6F6620696E76616C696421000000000000000000 PUSH1 0x44 DUP3 ADD MSTORE PUSH1 0x64 ADD PUSH2 0x37B JUMP JUMPDEST DUP4 MLOAD PUSH1 0x0 SWAP1 DUP2 MSTORE PUSH1 0xB PUSH1 0x20 MSTORE PUSH1 0x40 SWAP1 KECCAK256 SLOAD PUSH1 0xFF AND ISZERO PUSH2 0xA05 JUMPI PUSH1 0x40 MLOAD PUSH3 0x461BCD PUSH1 0xE5 SHL DUP2 MSTORE PUSH1 0x20 PUSH1 0x4 DUP3 ADD MSTORE PUSH1 0xD PUSH1 0x24 DUP3 ADD MSTORE PUSH13 0x141C9BDBD9881A5CC81D5CD959 PUSH1 0x9A SHL PUSH1 0x44 DUP3 ADD MSTORE PUSH1 0x64 ADD PUSH2 0x37B JUMP JUMPDEST PUSH2 0xA69 PUSH1 0x40 MLOAD DUP1 PUSH1 0x40 ADD PUSH1 0x40 MSTORE DUP1 PUSH1 0xC DUP2 MSTORE PUSH1 0x20 ADD PUSH32 0x7472757374656520686173680000000000000000000000000000000000000000 DUP2 MSTORE POP PUSH1 0x9 PUSH1 0x0 CALLER PUSH1 0x1 PUSH1 0x1 PUSH1 0xA0 SHL SUB AND PUSH1 0x1 PUSH1 0x1 PUSH1 0xA0 SHL SUB AND DUP2 MSTORE PUSH1 0x20 ADD SWAP1 DUP2 MSTORE PUSH1 0x20 ADD PUSH1 0x0 KECCAK256 SLOAD PUSH2 0x1736 JUMP JUMPDEST PUSH1 0x40 DUP1 MLOAD DUP1 DUP3 ADD SWAP1 SWAP2 MSTORE PUSH1 0x5 DUP2 MSTORE PUSH32 0x496E707574000000000000000000000000000000000000000000000000000000 PUSH1 0x20 DUP3 ADD MSTORE DUP8 MLOAD PUSH2 0xAA9 SWAP2 SWAP1 PUSH2 0x1736 JUMP JUMPDEST CALLER PUSH1 0x0 SWAP1 DUP2 MSTORE PUSH1 0x9 PUSH1 0x20 MSTORE PUSH1 0x40 SWAP1 KECCAK256 SLOAD DUP8 MLOAD EQ PUSH2 0xAF9 JUMPI PUSH1 0x40 MLOAD PUSH3 0x461BCD PUSH1 0xE5 SHL DUP2 MSTORE PUSH1 0x20 PUSH1 0x4 DUP3 ADD MSTORE PUSH1 0xE PUSH1 0x24 DUP3 ADD MSTORE PUSH14 0x15DC9BDB99C81C185CDCDDDBDC99 PUSH1 0x92 SHL PUSH1 0x44 DUP3 ADD MSTORE PUSH1 0x64 ADD PUSH2 0x37B JUMP JUMPDEST PUSH1 0x1 PUSH1 0x1 PUSH1 0xA0 SHL SUB DUP7 AND PUSH2 0xB4F JUMPI PUSH1 0x40 MLOAD PUSH3 0x461BCD PUSH1 0xE5 SHL DUP2 MSTORE PUSH1 0x20 PUSH1 0x4 DUP3 ADD MSTORE PUSH1 0xC PUSH1 0x24 DUP3 ADD MSTORE PUSH32 0x5A65726F20616464726573730000000000000000000000000000000000000000 PUSH1 0x44 DUP3 ADD MSTORE PUSH1 0x64 ADD PUSH2 0x37B JUMP JUMPDEST PUSH1 0x1 PUSH1 0x1 PUSH1 0xA0 SHL SUB DUP7 AND PUSH1 0x0 SWAP1 DUP2 MSTORE PUSH1 0xA PUSH1 0x20 MSTORE PUSH1 0x40 SWAP1 KECCAK256 SLOAD PUSH1 0xFF AND ISZERO PUSH2 0xBDE JUMPI PUSH1 0x40 MLOAD PUSH3 0x461BCD PUSH1 0xE5 SHL DUP2 MSTORE PUSH1 0x20 PUSH1 0x4 DUP3 ADD MSTORE PUSH1 0x22 PUSH1 0x24 DUP3 ADD MSTORE PUSH32 0x4F776E65722073686F756C64206E6F7420626520612070617374206164647265 PUSH1 0x44 DUP3 ADD MSTORE PUSH32 0x7373000000000000000000000000000000000000000000000000000000000000 PUSH1 0x64 DUP3 ADD MSTORE PUSH1 0x84 ADD PUSH2 0x37B JUMP JUMPDEST PUSH1 0x5 DUP1 SLOAD SWAP1 PUSH1 0x0 PUSH2 0xBEE DUP4 PUSH2 0x1F68 JUMP JUMPDEST SWAP1 SWAP2 SSTORE POP POP PUSH1 0x5 SLOAD PUSH1 0x0 SWAP1 DUP2 MSTORE PUSH1 0xD PUSH1 0x20 MSTORE PUSH1 0x40 DUP2 KECCAK256 PUSH1 0x1 DUP2 ADD DUP1 SLOAD PUSH20 0xFFFFFFFFFFFFFFFFFFFFFFFFFFFFFFFFFFFFFFFF NOT AND PUSH1 0x1 PUSH1 0x1 PUSH1 0xA0 SHL SUB DUP11 AND OR SWAP1 SSTORE DUP1 SLOAD SWAP1 SWAP2 DUP3 SWAP1 PUSH2 0xC3D DUP4 PUSH2 0x1F68 JUMP JUMPDEST SWAP1 SWAP2 SSTORE POP POP CALLER PUSH1 0x0 DUP2 DUP2 MSTORE PUSH1 0x2 DUP4 ADD PUSH1 0x20 SWAP1 DUP2 MSTORE PUSH1 0x40 SWAP2 DUP3 SWAP1 KECCAK256 DUP1 SLOAD PUSH1 0x1 PUSH1 0xFF NOT SWAP2 DUP3 AND DUP2 OR SWAP1 SWAP3 SSTORE PUSH1 0xC DUP1 SLOAD SWAP1 SWAP2 AND SWAP1 SWAP2 OR SWAP1 SSTORE PUSH1 0x5 SLOAD SWAP2 MLOAD SWAP2 DUP3 MSTORE PUSH1 0x1 PUSH1 0x1 PUSH1 0xA0 SHL SUB DUP11 AND SWAP2 PUSH32 0x4AE23DC2E5F7892600076B48A0CFDBCC206C2ABA4E323DA13765339B2B8978D8 SWAP2 ADD PUSH1 0x40 MLOAD DUP1 SWAP2 SUB SWAP1 LOG3 PUSH1 0x5 SLOAD SWAP6 POP POP PUSH1 0x1 PUSH1 0xB PUSH1 0x0 DUP7 DUP2 JUMPDEST PUSH1 0x20 MUL ADD MLOAD DUP2 MSTORE PUSH1 0x20 ADD SWAP1 DUP2 MSTORE PUSH1 0x20 ADD PUSH1 0x0 KECCAK256 PUSH1 0x0 PUSH2 0x100 EXP DUP2 SLOAD DUP2 PUSH1 0xFF MUL NOT AND SWAP1 DUP4 ISZERO ISZERO MUL OR SWAP1 SSTORE POP POP POP POP POP SWAP6 SWAP5 POP POP POP POP POP JUMP JUMPDEST CALLER PUSH1 0x0 SWAP1 DUP2 MSTORE PUSH1 0x8 PUSH1 0x20 MSTORE PUSH1 0x40 DUP2 KECCAK256 SLOAD PUSH1 0xFF AND PUSH2 0xD43 JUMPI PUSH1 0x40 MLOAD PUSH3 0x461BCD PUSH1 0xE5 SHL DUP2 MSTORE PUSH1 0x20 PUSH1 0x4 DUP3 ADD MSTORE PUSH1 0xB PUSH1 0x24 DUP3 ADD MSTORE PUSH11 0x4E6F742054727573746565 PUSH1 0xA8 SHL PUSH1 0x44 DUP3 ADD MSTORE PUSH1 0x64 ADD PUSH2 0x37B JUMP JUMPDEST PUSH1 0xC SLOAD PUSH1 0xFF AND PUSH2 0xD95 JUMPI PUSH1 0x40 MLOAD PUSH3 0x461BCD PUSH1 0xE5 SHL DUP2 MSTORE PUSH1 0x20 PUSH1 0x4 DUP3 ADD MSTORE PUSH1 0x18 PUSH1 0x24 DUP3 ADD MSTORE PUSH32 0x5265636F7665727920686173206E6F7420737461727465640000000000000000 PUSH1 0x44 DUP3 ADD MSTORE PUSH1 0x64 ADD PUSH2 0x37B JUMP JUMPDEST PUSH1 0x1 SLOAD PUSH1 0x40 MLOAD PUSH4 0x43753B4D PUSH1 0xE0 SHL DUP2 MSTORE DUP8 SWAP2 DUP8 SWAP2 DUP8 SWAP2 DUP8 SWAP2 PUSH1 0x1 PUSH1 0x1 PUSH1 0xA0 SHL SUB SWAP1 SWAP2 AND SWAP1 PUSH4 0x43753B4D SWAP1 PUSH2 0xDD3 SWAP1 DUP8 SWAP1 DUP8 SWAP1 DUP8 SWAP1 DUP8 SWAP1 PUSH1 0x4 ADD PUSH2 0x1ED3 JUMP JUMPDEST PUSH1 0x20 PUSH1 0x40 MLOAD DUP1 DUP4 SUB DUP2 DUP7 GAS STATICCALL ISZERO DUP1 ISZERO PUSH2 0xDF0 JUMPI RETURNDATASIZE PUSH1 0x0 DUP1 RETURNDATACOPY RETURNDATASIZE PUSH1 0x0 REVERT JUMPDEST POP POP POP POP PUSH1 0x40 MLOAD RETURNDATASIZE PUSH1 0x1F NOT PUSH1 0x1F DUP3 ADD AND DUP3 ADD DUP1 PUSH1 0x40 MSTORE POP DUP2 ADD SWAP1 PUSH2 0xE14 SWAP2 SWAP1 PUSH2 0x1F30 JUMP JUMPDEST PUSH2 0xE60 JUMPI PUSH1 0x40 MLOAD PUSH3 0x461BCD PUSH1 0xE5 SHL DUP2 MSTORE PUSH1 0x20 PUSH1 0x4 DUP3 ADD MSTORE PUSH1 0x17 PUSH1 0x24 DUP3 ADD MSTORE PUSH32 0x50617373776F72642070726F6F6620696E76616C696421000000000000000000 PUSH1 0x44 DUP3 ADD MSTORE PUSH1 0x64 ADD PUSH2 0x37B JUMP JUMPDEST DUP4 MLOAD PUSH1 0x0 SWAP1 DUP2 MSTORE PUSH1 0xB PUSH1 0x20 MSTORE PUSH1 0x40 SWAP1 KECCAK256 SLOAD PUSH1 0xFF AND ISZERO PUSH2 0xEB1 JUMPI PUSH1 0x40 MLOAD PUSH3 0x461BCD PUSH1 0xE5 SHL DUP2 MSTORE PUSH1 0x20 PUSH1 0x4 DUP3 ADD MSTORE PUSH1 0xD PUSH1 0x24 DUP3 ADD MSTORE PUSH13 0x141C9BDBD9881A5CC81D5CD959 PUSH1 0x9A SHL PUSH1 0x44 DUP3 ADD MSTORE PUSH1 0x64 ADD PUSH2 0x37B JUMP JUMPDEST CALLER PUSH1 0x0 SWAP1 DUP2 MSTORE PUSH1 0x9 PUSH1 0x20 MSTORE PUSH1 0x40 SWAP1 KECCAK256 SLOAD DUP8 MLOAD EQ PUSH2 0xF01 JUMPI PUSH1 0x40 MLOAD PUSH3 0x461BCD PUSH1 0xE5 SHL DUP2 MSTORE PUSH1 0x20 PUSH1 0x4 DUP3 ADD MSTORE PUSH1 0xE PUSH1 0x24 DUP3 ADD MSTORE PUSH14 0x15DC9BDB99C81C185CDCDDDBDC99 PUSH1 0x92 SHL PUSH1 0x44 DUP3 ADD MSTORE PUSH1 0x64 ADD PUSH2 0x37B JUMP JUMPDEST PUSH2 0xF3F PUSH1 0x40 MLOAD DUP1 PUSH1 0x40 ADD PUSH1 0x40 MSTORE DUP1 PUSH1 0x5 DUP2 MSTORE PUSH1 0x20 ADD PUSH32 0x4865726531000000000000000000000000000000000000000000000000000000 DUP2 MSTORE POP PUSH2 0x17A9 JUMP JUMPDEST PUSH1 0x5 SLOAD DUP7 GT ISZERO PUSH2 0xF91 JUMPI PUSH1 0x40 MLOAD PUSH3 0x461BCD PUSH1 0xE5 SHL DUP2 MSTORE PUSH1 0x20 PUSH1 0x4 DUP3 ADD MSTORE PUSH1 0x1B PUSH1 0x24 DUP3 ADD MSTORE PUSH32 0x57726F6E67205265636F7665727920726F756E64206E756D6265720000000000 PUSH1 0x44 DUP3 ADD MSTORE PUSH1 0x64 ADD PUSH2 0x37B JUMP JUMPDEST PUSH2 0xFCF PUSH1 0x40 MLOAD DUP1 PUSH1 0x40 ADD PUSH1 0x40 MSTORE DUP1 PUSH1 0x4 DUP2 MSTORE PUSH1 0x20 ADD PUSH32 0x4865726500000000000000000000000000000000000000000000000000000000 DUP2 MSTORE POP PUSH2 0x17A9 JUMP JUMPDEST PUSH1 0x0 DUP7 DUP2 MSTORE PUSH1 0xD PUSH1 0x20 SWAP1 DUP2 MSTORE PUSH1 0x40 DUP1 DUP4 KECCAK256 CALLER DUP5 MSTORE PUSH1 0x2 DUP2 ADD SWAP1 SWAP3 MSTORE SWAP1 SWAP2 KECCAK256 SLOAD PUSH1 0xFF AND ISZERO PUSH2 0x103E JUMPI PUSH1 0x40 MLOAD PUSH3 0x461BCD PUSH1 0xE5 SHL DUP2 MSTORE PUSH1 0x20 PUSH1 0x4 DUP3 ADD MSTORE PUSH1 0x15 PUSH1 0x24 DUP3 ADD MSTORE PUSH32 0x5472757374656520616C726561647920766F7465640000000000000000000000 PUSH1 0x44 DUP3 ADD MSTORE PUSH1 0x64 ADD PUSH2 0x37B JUMP JUMPDEST DUP1 SLOAD DUP2 PUSH1 0x0 PUSH2 0x104C DUP4 PUSH2 0x1F68 JUMP JUMPDEST SWAP1 SWAP2 SSTORE POP POP CALLER PUSH1 0x0 DUP2 DUP2 MSTORE PUSH1 0x2 DUP4 ADD PUSH1 0x20 MSTORE PUSH1 0x40 SWAP1 DUP2 SWAP1 KECCAK256 DUP1 SLOAD PUSH1 0xFF NOT AND PUSH1 0x1 SWAP1 DUP2 OR SWAP1 SWAP2 SSTORE SWAP1 MLOAD SWAP1 SWAP8 POP PUSH32 0x7F7906F4F6E51FAC746E81B4885D9775EB44445765139416BCD03B12B262968A SWAP1 PUSH2 0x10A6 SWAP1 DUP11 DUP2 MSTORE PUSH1 0x20 ADD SWAP1 JUMP JUMPDEST PUSH1 0x40 MLOAD DUP1 SWAP2 SUB SWAP1 LOG2 POP PUSH1 0x1 PUSH1 0xB PUSH1 0x0 DUP7 DUP2 PUSH2 0xCBF JUMP JUMPDEST DUP1 MLOAD PUSH1 0x0 SWAP1 PUSH32 0x0 EQ PUSH2 0x112F JUMPI PUSH1 0x40 MLOAD PUSH3 0x461BCD PUSH1 0xE5 SHL DUP2 MSTORE PUSH1 0x20 PUSH1 0x4 DUP3 ADD MSTORE PUSH1 0xE PUSH1 0x24 DUP3 ADD MSTORE PUSH32 0x496E636F6F7265637420726F6F74000000000000000000000000000000000000 PUSH1 0x44 DUP3 ADD MSTORE PUSH1 0x64 ADD PUSH2 0x37B JUMP JUMPDEST PUSH1 0x0 SLOAD PUSH1 0x20 DUP4 ADD MLOAD GT PUSH2 0x1184 JUMPI PUSH1 0x40 MLOAD PUSH3 0x461BCD PUSH1 0xE5 SHL DUP2 MSTORE PUSH1 0x20 PUSH1 0x4 DUP3 ADD MSTORE PUSH1 0x9 PUSH1 0x24 DUP3 ADD MSTORE PUSH32 0x4F6C642050726F6F660000000000000000000000000000000000000000000000 PUSH1 0x44 DUP3 ADD MSTORE PUSH1 0x64 ADD PUSH2 0x37B JUMP JUMPDEST PUSH1 0x40 MLOAD PUSH32 0xF5C9D69E00000000000000000000000000000000000000000000000000000000 DUP2 MSTORE PUSH1 0x1 PUSH1 0x1 PUSH1 0xA0 SHL SUB PUSH32 0x0 AND SWAP1 PUSH4 0xF5C9D69E SWAP1 PUSH2 0x11EF SWAP1 DUP9 SWAP1 DUP9 SWAP1 DUP9 SWAP1 DUP9 SWAP1 PUSH1 0x4 ADD PUSH2 0x1F8F JUMP JUMPDEST PUSH1 0x20 PUSH1 0x40 MLOAD DUP1 DUP4 SUB DUP2 DUP7 GAS STATICCALL ISZERO DUP1 ISZERO PUSH2 0x120C JUMPI RETURNDATASIZE PUSH1 0x0 DUP1 RETURNDATACOPY RETURNDATASIZE PUSH1 0x0 REVERT JUMPDEST POP POP POP POP PUSH1 0x40 MLOAD RETURNDATASIZE PUSH1 0x1F NOT PUSH1 0x1F DUP3 ADD AND DUP3 ADD DUP1 PUSH1 0x40 MSTORE POP DUP2 ADD SWAP1 PUSH2 0x1230 SWAP2 SWAP1 PUSH2 0x1F30 JUMP JUMPDEST PUSH2 0x127C JUMPI PUSH1 0x40 MLOAD PUSH3 0x461BCD PUSH1 0xE5 SHL DUP2 MSTORE PUSH1 0x20 PUSH1 0x4 DUP3 ADD MSTORE PUSH1 0xD PUSH1 0x24 DUP3 ADD MSTORE PUSH32 0x496E76616C69642070726F6F6600000000000000000000000000000000000000 PUSH1 0x44 DUP3 ADD MSTORE PUSH1 0x64 ADD PUSH2 0x37B JUMP JUMPDEST POP PUSH1 0x20 ADD MLOAD PUSH1 0x0 SSTORE POP PUSH1 0x1 SWAP3 SWAP2 POP POP JUMP JUMPDEST CALLER PUSH1 0x0 SWAP1 DUP2 MSTORE PUSH1 0x8 PUSH1 0x20 MSTORE PUSH1 0x40 SWAP1 KECCAK256 SLOAD PUSH1 0xFF AND PUSH2 0x12DA JUMPI PUSH1 0x40 MLOAD PUSH3 0x461BCD PUSH1 0xE5 SHL DUP2 MSTORE PUSH1 0x20 PUSH1 0x4 DUP3 ADD MSTORE PUSH1 0xB PUSH1 0x24 DUP3 ADD MSTORE PUSH11 0x4E6F742054727573746565 PUSH1 0xA8 SHL PUSH1 0x44 DUP3 ADD MSTORE PUSH1 0x64 ADD PUSH2 0x37B JUMP JUMPDEST PUSH1 0xC SLOAD PUSH1 0xFF AND PUSH2 0x132C JUMPI PUSH1 0x40 MLOAD PUSH3 0x461BCD PUSH1 0xE5 SHL DUP2 MSTORE PUSH1 0x20 PUSH1 0x4 DUP3 ADD MSTORE PUSH1 0x18 PUSH1 0x24 DUP3 ADD MSTORE PUSH32 0x5265636F7665727920686173206E6F7420737461727465640000000000000000 PUSH1 0x44 DUP3 ADD MSTORE PUSH1 0x64 ADD PUSH2 0x37B JUMP JUMPDEST PUSH1 0x1 SLOAD PUSH1 0x40 MLOAD PUSH4 0x43753B4D PUSH1 0xE0 SHL DUP2 MSTORE DUP7 SWAP2 DUP7 SWAP2 DUP7 SWAP2 DUP7 SWAP2 PUSH1 0x1 PUSH1 0x1 PUSH1 0xA0 SHL SUB SWAP1 SWAP2 AND SWAP1 PUSH4 0x43753B4D SWAP1 PUSH2 0x136A SWAP1 DUP8 SWAP1 DUP8 SWAP1 DUP8 SWAP1 DUP8 SWAP1 PUSH1 0x4 ADD PUSH2 0x1ED3 JUMP JUMPDEST PUSH1 0x20 PUSH1 0x40 MLOAD DUP1 DUP4 SUB DUP2 DUP7 GAS STATICCALL ISZERO DUP1 ISZERO PUSH2 0x1387 JUMPI RETURNDATASIZE PUSH1 0x0 DUP1 RETURNDATACOPY RETURNDATASIZE PUSH1 0x0 REVERT JUMPDEST POP POP POP POP PUSH1 0x40 MLOAD RETURNDATASIZE PUSH1 0x1F NOT PUSH1 0x1F DUP3 ADD AND DUP3 ADD DUP1 PUSH1 0x40 MSTORE POP DUP2 ADD SWAP1 PUSH2 0x13AB SWAP2 SWAP1 PUSH2 0x1F30 JUMP JUMPDEST PUSH2 0x13F7 JUMPI PUSH1 0x40 MLOAD PUSH3 0x461BCD PUSH1 0xE5 SHL DUP2 MSTORE PUSH1 0x20 PUSH1 0x4 DUP3 ADD MSTORE PUSH1 0x17 PUSH1 0x24 DUP3 ADD MSTORE PUSH32 0x50617373776F72642070726F6F6620696E76616C696421000000000000000000 PUSH1 0x44 DUP3 ADD MSTORE PUSH1 0x64 ADD PUSH2 0x37B JUMP JUMPDEST DUP4 MLOAD PUSH1 0x0 SWAP1 DUP2 MSTORE PUSH1 0xB PUSH1 0x20 MSTORE PUSH1 0x40 SWAP1 KECCAK256 SLOAD PUSH1 0xFF AND ISZERO PUSH2 0x1448 JUMPI PUSH1 0x40 MLOAD PUSH3 0x461BCD PUSH1 0xE5 SHL DUP2 MSTORE PUSH1 0x20 PUSH1 0x4 DUP3 ADD MSTORE PUSH1 0xD PUSH1 0x24 DUP3 ADD MSTORE PUSH13 0x141C9BDBD9881A5CC81D5CD959 PUSH1 0x9A SHL PUSH1 0x44 DUP3 ADD MSTORE PUSH1 0x64 ADD PUSH2 0x37B JUMP JUMPDEST CALLER PUSH1 0x0 SWAP1 DUP2 MSTORE PUSH1 0x9 PUSH1 0x20 MSTORE PUSH1 0x40 SWAP1 KECCAK256 SLOAD DUP7 MLOAD EQ PUSH2 0x1498 JUMPI PUSH1 0x40 MLOAD PUSH3 0x461BCD PUSH1 0xE5 SHL DUP2 MSTORE PUSH1 0x20 PUSH1 0x4 DUP3 ADD MSTORE PUSH1 0xE PUSH1 0x24 DUP3 ADD MSTORE PUSH14 0x15DC9BDB99C81C185CDCDDDBDC99 PUSH1 0x92 SHL PUSH1 0x44 DUP3 ADD MSTORE PUSH1 0x64 ADD PUSH2 0x37B JUMP JUMPDEST PUSH1 0x0 DUP6 DUP2 MSTORE PUSH1 0xD PUSH1 0x20 MSTORE PUSH1 0x40 SWAP1 KECCAK256 PUSH1 0x4 SLOAD DUP2 SLOAD LT ISZERO PUSH2 0x14F9 JUMPI PUSH1 0x40 MLOAD PUSH3 0x461BCD PUSH1 0xE5 SHL DUP2 MSTORE PUSH1 0x20 PUSH1 0x4 DUP3 ADD MSTORE PUSH1 0x10 PUSH1 0x24 DUP3 ADD MSTORE PUSH32 0x566F746573204E6F7420656E6F75676800000000000000000000000000000000 PUSH1 0x44 DUP3 ADD MSTORE PUSH1 0x64 ADD PUSH2 0x37B JUMP JUMPDEST PUSH1 0x1 DUP2 DUP2 ADD DUP1 SLOAD PUSH32 0xFFFFFFFFFFFFFFFFFFFFFF00FFFFFFFFFFFFFFFFFFFFFFFFFFFFFFFFFFFFFFFF AND PUSH21 0x10000000000000000000000000000000000000000 OR DUP2 SSTORE PUSH1 0xC DUP1 SLOAD PUSH1 0xFF NOT SWAP1 DUP2 AND SWAP1 SWAP2 SSTORE PUSH1 0x2 DUP1 SLOAD SWAP3 SLOAD PUSH20 0xFFFFFFFFFFFFFFFFFFFFFFFFFFFFFFFFFFFFFFFF NOT DUP5 AND PUSH1 0x1 PUSH1 0x1 PUSH1 0xA0 SHL SUB SWAP2 DUP3 AND SWAP1 DUP2 OR DUP4 SSTORE PUSH1 0x0 SWAP1 DUP2 MSTORE PUSH1 0xA PUSH1 0x20 MSTORE PUSH1 0x40 SWAP1 DUP2 SWAP1 KECCAK256 DUP1 SLOAD SWAP1 SWAP5 AND SWAP1 SWAP6 OR SWAP1 SWAP3 SSTORE SLOAD SWAP3 MLOAD SWAP2 DUP2 AND SWAP3 AND SWAP1 DUP3 SWAP1 PUSH32 0xCBAA7C7C351E2D5655FC08D9C383ADCF4736AF160C800B53DF1F1DD221F826C8 SWAP1 PUSH2 0x15CB SWAP1 DUP12 DUP2 MSTORE PUSH1 0x20 ADD SWAP1 JUMP JUMPDEST PUSH1 0x40 MLOAD DUP1 SWAP2 SUB SWAP1 LOG3 POP PUSH1 0x1 SWAP1 POP PUSH1 0xB PUSH1 0x0 DUP7 DUP2 PUSH2 0x6D9 JUMP JUMPDEST PUSH1 0x2 SLOAD PUSH1 0x1 PUSH1 0x1 PUSH1 0xA0 SHL SUB AND CALLER EQ PUSH2 0x1629 JUMPI PUSH1 0x40 MLOAD PUSH3 0x461BCD PUSH1 0xE5 SHL DUP2 MSTORE PUSH1 0x20 PUSH1 0x4 DUP3 ADD MSTORE PUSH1 0x9 PUSH1 0x24 DUP3 ADD MSTORE PUSH9 0x2737BA1027BBB732B9 PUSH1 0xB9 SHL PUSH1 0x44 DUP3 ADD MSTORE PUSH1 0x64 ADD PUSH2 0x37B JUMP JUMPDEST PUSH1 0x0 JUMPDEST DUP2 MLOAD DUP2 LT ISZERO PUSH2 0x171B JUMPI PUSH1 0x8 PUSH1 0x0 DUP4 DUP4 DUP2 MLOAD DUP2 LT PUSH2 0x164B JUMPI PUSH2 0x164B PUSH2 0x1F52 JUMP JUMPDEST PUSH1 0x20 SWAP1 DUP2 MUL SWAP2 SWAP1 SWAP2 ADD DUP2 ADD MLOAD PUSH1 0x1 PUSH1 0x1 PUSH1 0xA0 SHL SUB AND DUP3 MSTORE DUP2 ADD SWAP2 SWAP1 SWAP2 MSTORE PUSH1 0x40 ADD PUSH1 0x0 KECCAK256 SLOAD PUSH1 0xFF AND ISZERO PUSH2 0x16BF JUMPI PUSH1 0x40 MLOAD PUSH3 0x461BCD PUSH1 0xE5 SHL DUP2 MSTORE PUSH1 0x20 PUSH1 0x4 DUP3 ADD MSTORE PUSH1 0x19 PUSH1 0x24 DUP3 ADD MSTORE PUSH32 0x4475706C6963617465207472757374656520696E206C69737400000000000000 PUSH1 0x44 DUP3 ADD MSTORE PUSH1 0x64 ADD PUSH2 0x37B JUMP JUMPDEST PUSH1 0x1 PUSH1 0x8 PUSH1 0x0 DUP5 DUP5 DUP2 MLOAD DUP2 LT PUSH2 0x16D7 JUMPI PUSH2 0x16D7 PUSH2 0x1F52 JUMP JUMPDEST PUSH1 0x20 SWAP1 DUP2 MUL SWAP2 SWAP1 SWAP2 ADD DUP2 ADD MLOAD PUSH1 0x1 PUSH1 0x1 PUSH1 0xA0 SHL SUB AND DUP3 MSTORE DUP2 ADD SWAP2 SWAP1 SWAP2 MSTORE PUSH1 0x40 ADD PUSH1 0x0 KECCAK256 DUP1 SLOAD PUSH1 0xFF NOT AND SWAP2 ISZERO ISZERO SWAP2 SWAP1 SWAP2 OR SWAP1 SSTORE DUP1 PUSH2 0x1713 DUP2 PUSH2 0x1F68 JUMP JUMPDEST SWAP2 POP POP PUSH2 0x162C JUMP JUMPDEST POP DUP1 MLOAD PUSH2 0x172F SWAP1 PUSH1 0x7 SWAP1 PUSH1 0x20 DUP5 ADD SWAP1 PUSH2 0x183E JUMP JUMPDEST POP MLOAD PUSH1 0x6 SSTORE JUMP JUMPDEST PUSH2 0x81B DUP3 DUP3 PUSH1 0x40 MLOAD PUSH1 0x24 ADD PUSH2 0x174C SWAP3 SWAP2 SWAP1 PUSH2 0x1FCF JUMP JUMPDEST PUSH1 0x40 DUP1 MLOAD PUSH1 0x1F NOT DUP2 DUP5 SUB ADD DUP2 MSTORE SWAP2 SWAP1 MSTORE PUSH1 0x20 DUP2 ADD DUP1 MLOAD PUSH28 0xFFFFFFFFFFFFFFFFFFFFFFFFFFFFFFFFFFFFFFFFFFFFFFFFFFFFFFFF AND PUSH32 0xB60E72CC00000000000000000000000000000000000000000000000000000000 OR SWAP1 MSTORE PUSH2 0x181D JUMP JUMPDEST PUSH2 0x181A DUP2 PUSH1 0x40 MLOAD PUSH1 0x24 ADD PUSH2 0x17BD SWAP2 SWAP1 PUSH2 0x1AAB JUMP JUMPDEST PUSH1 0x40 DUP1 MLOAD PUSH1 0x1F NOT DUP2 DUP5 SUB ADD DUP2 MSTORE SWAP2 SWAP1 MSTORE PUSH1 0x20 DUP2 ADD DUP1 MLOAD PUSH28 0xFFFFFFFFFFFFFFFFFFFFFFFFFFFFFFFFFFFFFFFFFFFFFFFFFFFFFFFF AND PUSH32 0x41304FAC00000000000000000000000000000000000000000000000000000000 OR SWAP1 MSTORE PUSH2 0x181D JUMP JUMPDEST POP JUMP JUMPDEST DUP1 MLOAD PUSH11 0x636F6E736F6C652E6C6F67 PUSH1 0x20 DUP4 ADD PUSH1 0x0 DUP1 DUP5 DUP4 DUP6 GAS STATICCALL POP POP POP POP POP JUMP JUMPDEST DUP3 DUP1 SLOAD DUP3 DUP3 SSTORE SWAP1 PUSH1 0x0 MSTORE PUSH1 0x20 PUSH1 0x0 KECCAK256 SWAP1 DUP2 ADD SWAP3 DUP3 ISZERO PUSH2 0x18A0 JUMPI SWAP2 PUSH1 0x20 MUL DUP3 ADD JUMPDEST DUP3 DUP2 GT ISZERO PUSH2 0x18A0 JUMPI DUP3 MLOAD DUP3 SLOAD PUSH20 0xFFFFFFFFFFFFFFFFFFFFFFFFFFFFFFFFFFFFFFFF NOT AND PUSH1 0x1 PUSH1 0x1 PUSH1 0xA0 SHL SUB SWAP1 SWAP2 AND OR DUP3 SSTORE PUSH1 0x20 SWAP1 SWAP3 ADD SWAP2 PUSH1 0x1 SWAP1 SWAP2 ADD SWAP1 PUSH2 0x185E JUMP JUMPDEST POP PUSH2 0x18AC SWAP3 SWAP2 POP PUSH2 0x18B0 JUMP JUMPDEST POP SWAP1 JUMP JUMPDEST JUMPDEST DUP1 DUP3 GT ISZERO PUSH2 0x18AC JUMPI PUSH1 0x0 DUP2 SSTORE PUSH1 0x1 ADD PUSH2 0x18B1 JUMP JUMPDEST PUSH4 0x4E487B71 PUSH1 0xE0 SHL PUSH1 0x0 MSTORE PUSH1 0x41 PUSH1 0x4 MSTORE PUSH1 0x24 PUSH1 0x0 REVERT JUMPDEST PUSH1 0x40 DUP1 MLOAD SWAP1 DUP2 ADD PUSH8 0xFFFFFFFFFFFFFFFF DUP2 GT DUP3 DUP3 LT OR ISZERO PUSH2 0x18FE JUMPI PUSH2 0x18FE PUSH2 0x18C5 JUMP JUMPDEST PUSH1 0x40 MSTORE SWAP1 JUMP JUMPDEST PUSH1 0x40 MLOAD PUSH1 0x1F DUP3 ADD PUSH1 0x1F NOT AND DUP2 ADD PUSH8 0xFFFFFFFFFFFFFFFF DUP2 GT DUP3 DUP3 LT OR ISZERO PUSH2 0x192D JUMPI PUSH2 0x192D PUSH2 0x18C5 JUMP JUMPDEST PUSH1 0x40 MSTORE SWAP2 SWAP1 POP JUMP JUMPDEST PUSH1 0x0 DUP3 PUSH1 0x1F DUP4 ADD SLT PUSH2 0x1946 JUMPI PUSH1 0x0 DUP1 REVERT JUMPDEST PUSH2 0x194E PUSH2 0x18DB JUMP JUMPDEST DUP1 PUSH1 0x40 DUP5 ADD DUP6 DUP2 GT ISZERO PUSH2 0x1960 JUMPI PUSH1 0x0 DUP1 REVERT JUMPDEST DUP5 JUMPDEST DUP2 DUP2 LT ISZERO PUSH2 0x197A JUMPI DUP1 CALLDATALOAD DUP5 MSTORE PUSH1 0x20 SWAP4 DUP5 ADD SWAP4 ADD PUSH2 0x1962 JUMP JUMPDEST POP SWAP1 SWAP6 SWAP5 POP POP POP POP POP JUMP JUMPDEST PUSH1 0x0 DUP3 PUSH1 0x1F DUP4 ADD SLT PUSH2 0x1996 JUMPI PUSH1 0x0 DUP1 REVERT JUMPDEST PUSH2 0x199E PUSH2 0x18DB JUMP JUMPDEST DUP1 PUSH1 0x80 DUP5 ADD DUP6 DUP2 GT ISZERO PUSH2 0x19B0 JUMPI PUSH1 0x0 DUP1 REVERT JUMPDEST DUP5 JUMPDEST DUP2 DUP2 LT ISZERO PUSH2 0x197A JUMPI PUSH2 0x19C4 DUP8 DUP3 PUSH2 0x1935 JUMP JUMPDEST DUP5 MSTORE PUSH1 0x20 SWAP1 SWAP4 ADD SWAP3 PUSH1 0x40 ADD PUSH2 0x19B2 JUMP JUMPDEST DUP1 CALLDATALOAD PUSH1 0x1 PUSH1 0x1 PUSH1 0xA0 SHL SUB DUP2 AND DUP2 EQ PUSH2 0x19EB JUMPI PUSH1 0x0 DUP1 REVERT JUMPDEST SWAP2 SWAP1 POP JUMP JUMPDEST PUSH1 0x0 DUP1 PUSH1 0x0 DUP1 PUSH1 0x0 DUP1 PUSH2 0x180 DUP8 DUP10 SUB SLT ISZERO PUSH2 0x1A0A JUMPI PUSH1 0x0 DUP1 REVERT JUMPDEST PUSH2 0x1A14 DUP9 DUP9 PUSH2 0x1935 JUMP JUMPDEST SWAP6 POP PUSH2 0x1A23 DUP9 PUSH1 0x40 DUP10 ADD PUSH2 0x1985 JUMP JUMPDEST SWAP5 POP PUSH2 0x1A32 DUP9 PUSH1 0xC0 DUP10 ADD PUSH2 0x1935 JUMP JUMPDEST SWAP4 POP PUSH2 0x1A42 DUP9 PUSH2 0x100 DUP10 ADD PUSH2 0x1935 JUMP JUMPDEST SWAP3 POP PUSH2 0x1A51 PUSH2 0x140 DUP9 ADD PUSH2 0x19D4 JUMP JUMPDEST SWAP2 POP PUSH2 0x160 DUP8 ADD CALLDATALOAD SWAP1 POP SWAP3 SWAP6 POP SWAP3 SWAP6 POP SWAP3 SWAP6 JUMP JUMPDEST PUSH1 0x0 DUP2 MLOAD DUP1 DUP5 MSTORE PUSH1 0x0 JUMPDEST DUP2 DUP2 LT ISZERO PUSH2 0x1A8B JUMPI PUSH1 0x20 DUP2 DUP6 ADD DUP2 ADD MLOAD DUP7 DUP4 ADD DUP3 ADD MSTORE ADD PUSH2 0x1A6F JUMP JUMPDEST POP PUSH1 0x0 PUSH1 0x20 DUP3 DUP7 ADD ADD MSTORE PUSH1 0x20 PUSH1 0x1F NOT PUSH1 0x1F DUP4 ADD AND DUP6 ADD ADD SWAP2 POP POP SWAP3 SWAP2 POP POP JUMP JUMPDEST PUSH1 0x20 DUP2 MSTORE PUSH1 0x0 PUSH2 0x1ABE PUSH1 0x20 DUP4 ADD DUP5 PUSH2 0x1A65 JUMP JUMPDEST SWAP4 SWAP3 POP POP POP JUMP JUMPDEST PUSH1 0x0 DUP1 PUSH1 0x0 DUP1 PUSH1 0x80 DUP6 DUP8 SUB SLT ISZERO PUSH2 0x1ADB JUMPI PUSH1 0x0 DUP1 REVERT JUMPDEST PUSH2 0x1AE4 DUP6 PUSH2 0x19D4 JUMP JUMPDEST SWAP4 POP PUSH1 0x20 PUSH2 0x1AF3 DUP2 DUP8 ADD PUSH2 0x19D4 JUMP JUMPDEST SWAP4 POP PUSH1 0x40 DUP7 ADD CALLDATALOAD SWAP3 POP PUSH1 0x60 DUP7 ADD CALLDATALOAD PUSH8 0xFFFFFFFFFFFFFFFF DUP1 DUP3 GT ISZERO PUSH2 0x1B17 JUMPI PUSH1 0x0 DUP1 REVERT JUMPDEST DUP2 DUP9 ADD SWAP2 POP DUP9 PUSH1 0x1F DUP4 ADD SLT PUSH2 0x1B2B JUMPI PUSH1 0x0 DUP1 REVERT JUMPDEST DUP2 CALLDATALOAD DUP2 DUP2 GT ISZERO PUSH2 0x1B3D JUMPI PUSH2 0x1B3D PUSH2 0x18C5 JUMP JUMPDEST PUSH2 0x1B4F PUSH1 0x1F DUP3 ADD PUSH1 0x1F NOT AND DUP6 ADD PUSH2 0x1904 JUMP JUMPDEST SWAP2 POP DUP1 DUP3 MSTORE DUP10 DUP5 DUP3 DUP6 ADD ADD GT ISZERO PUSH2 0x1B65 JUMPI PUSH1 0x0 DUP1 REVERT JUMPDEST DUP1 DUP5 DUP5 ADD DUP6 DUP5 ADD CALLDATACOPY PUSH1 0x0 DUP5 DUP3 DUP5 ADD ADD MSTORE POP DUP1 SWAP4 POP POP POP POP SWAP3 SWAP6 SWAP2 SWAP5 POP SWAP3 POP JUMP JUMPDEST PUSH1 0x0 DUP3 PUSH1 0x1F DUP4 ADD SLT PUSH2 0x1B96 JUMPI PUSH1 0x0 DUP1 REVERT JUMPDEST PUSH1 0x40 MLOAD PUSH1 0x20 DUP1 DUP3 ADD DUP3 DUP2 LT PUSH8 0xFFFFFFFFFFFFFFFF DUP3 GT OR ISZERO PUSH2 0x1BBA JUMPI PUSH2 0x1BBA PUSH2 0x18C5 JUMP JUMPDEST PUSH1 0x40 MSTORE DUP2 DUP5 DUP3 ADD DUP7 DUP2 GT ISZERO PUSH2 0x1BCE JUMPI PUSH1 0x0 DUP1 REVERT JUMPDEST DUP6 JUMPDEST DUP2 DUP2 LT ISZERO PUSH2 0x1BE7 JUMPI DUP1 CALLDATALOAD DUP4 MSTORE SWAP2 DUP4 ADD SWAP2 DUP4 ADD PUSH2 0x1BD0 JUMP JUMPDEST POP SWAP3 SWAP7 SWAP6 POP POP POP POP POP POP JUMP JUMPDEST PUSH1 0x0 DUP1 PUSH1 0x0 DUP1 PUSH1 0x0 PUSH2 0x140 DUP7 DUP9 SUB SLT ISZERO PUSH2 0x1C0C JUMPI PUSH1 0x0 DUP1 REVERT JUMPDEST PUSH2 0x1C16 DUP8 DUP8 PUSH2 0x1935 JUMP JUMPDEST SWAP5 POP PUSH2 0x1C25 DUP8 PUSH1 0x40 DUP9 ADD PUSH2 0x1985 JUMP JUMPDEST SWAP4 POP PUSH2 0x1C34 DUP8 PUSH1 0xC0 DUP9 ADD PUSH2 0x1935 JUMP JUMPDEST SWAP3 POP PUSH2 0x1C44 DUP8 PUSH2 0x100 DUP9 ADD PUSH2 0x1B85 JUMP JUMPDEST SWAP5 SWAP8 SWAP4 SWAP7 POP SWAP2 SWAP5 PUSH2 0x120 ADD CALLDATALOAD SWAP3 SWAP2 POP POP JUMP JUMPDEST PUSH1 0x0 PUSH8 0xFFFFFFFFFFFFFFFF DUP3 GT ISZERO PUSH2 0x1C70 JUMPI PUSH2 0x1C70 PUSH2 0x18C5 JUMP JUMPDEST POP PUSH1 0x5 SHL PUSH1 0x20 ADD SWAP1 JUMP JUMPDEST PUSH1 0x0 PUSH1 0x20 DUP1 DUP4 DUP6 SUB SLT ISZERO PUSH2 0x1C8D JUMPI PUSH1 0x0 DUP1 REVERT JUMPDEST DUP3 CALLDATALOAD PUSH8 0xFFFFFFFFFFFFFFFF DUP2 GT ISZERO PUSH2 0x1CA4 JUMPI PUSH1 0x0 DUP1 REVERT JUMPDEST DUP4 ADD PUSH1 0x1F DUP2 ADD DUP6 SGT PUSH2 0x1CB5 JUMPI PUSH1 0x0 DUP1 REVERT JUMPDEST DUP1 CALLDATALOAD PUSH2 0x1CC8 PUSH2 0x1CC3 DUP3 PUSH2 0x1C56 JUMP JUMPDEST PUSH2 0x1904 JUMP JUMPDEST DUP2 DUP2 MSTORE PUSH1 0x5 SWAP2 SWAP1 SWAP2 SHL DUP3 ADD DUP4 ADD SWAP1 DUP4 DUP2 ADD SWAP1 DUP8 DUP4 GT ISZERO PUSH2 0x1CE7 JUMPI PUSH1 0x0 DUP1 REVERT JUMPDEST SWAP3 DUP5 ADD SWAP3 JUMPDEST DUP3 DUP5 LT ISZERO PUSH2 0x1D05 JUMPI DUP4 CALLDATALOAD DUP3 MSTORE SWAP3 DUP5 ADD SWAP3 SWAP1 DUP5 ADD SWAP1 PUSH2 0x1CEC JUMP JUMPDEST SWAP8 SWAP7 POP POP POP POP POP POP POP JUMP JUMPDEST PUSH1 0x0 PUSH1 0x20 DUP3 DUP5 SUB SLT ISZERO PUSH2 0x1D22 JUMPI PUSH1 0x0 DUP1 REVERT JUMPDEST POP CALLDATALOAD SWAP2 SWAP1 POP JUMP JUMPDEST PUSH1 0x0 DUP1 PUSH1 0x0 DUP1 PUSH1 0x0 PUSH2 0x140 DUP7 DUP9 SUB SLT ISZERO PUSH2 0x1D42 JUMPI PUSH1 0x0 DUP1 REVERT JUMPDEST PUSH2 0x1D4C DUP8 DUP8 PUSH2 0x1935 JUMP JUMPDEST SWAP5 POP PUSH2 0x1D5B DUP8 PUSH1 0x40 DUP9 ADD PUSH2 0x1985 JUMP JUMPDEST SWAP4 POP PUSH2 0x1D6A DUP8 PUSH1 0xC0 DUP9 ADD PUSH2 0x1935 JUMP JUMPDEST SWAP3 POP PUSH2 0x1D7A DUP8 PUSH2 0x100 DUP9 ADD PUSH2 0x1B85 JUMP JUMPDEST SWAP2 POP PUSH2 0x1D89 PUSH2 0x120 DUP8 ADD PUSH2 0x19D4 JUMP JUMPDEST SWAP1 POP SWAP3 SWAP6 POP SWAP3 SWAP6 SWAP1 SWAP4 POP JUMP JUMPDEST PUSH1 0x0 DUP1 PUSH1 0x0 DUP1 PUSH2 0x140 DUP6 DUP8 SUB SLT ISZERO PUSH2 0x1DAC JUMPI PUSH1 0x0 DUP1 REVERT JUMPDEST PUSH2 0x1DB6 DUP7 DUP7 PUSH2 0x1935 JUMP JUMPDEST SWAP4 POP PUSH2 0x1DC5 DUP7 PUSH1 0x40 DUP8 ADD PUSH2 0x1985 JUMP JUMPDEST SWAP3 POP PUSH2 0x1DD4 DUP7 PUSH1 0xC0 DUP8 ADD PUSH2 0x1935 JUMP JUMPDEST SWAP2 POP PUSH2 0x1DE4 DUP7 PUSH2 0x100 DUP8 ADD PUSH2 0x1935 JUMP JUMPDEST SWAP1 POP SWAP3 SWAP6 SWAP2 SWAP5 POP SWAP3 POP JUMP JUMPDEST PUSH1 0x0 PUSH1 0x20 DUP1 DUP4 DUP6 SUB SLT ISZERO PUSH2 0x1E02 JUMPI PUSH1 0x0 DUP1 REVERT JUMPDEST DUP3 CALLDATALOAD PUSH8 0xFFFFFFFFFFFFFFFF DUP2 GT ISZERO PUSH2 0x1E19 JUMPI PUSH1 0x0 DUP1 REVERT JUMPDEST DUP4 ADD PUSH1 0x1F DUP2 ADD DUP6 SGT PUSH2 0x1E2A JUMPI PUSH1 0x0 DUP1 REVERT JUMPDEST DUP1 CALLDATALOAD PUSH2 0x1E38 PUSH2 0x1CC3 DUP3 PUSH2 0x1C56 JUMP JUMPDEST DUP2 DUP2 MSTORE PUSH1 0x5 SWAP2 SWAP1 SWAP2 SHL DUP3 ADD DUP4 ADD SWAP1 DUP4 DUP2 ADD SWAP1 DUP8 DUP4 GT ISZERO PUSH2 0x1E57 JUMPI PUSH1 0x0 DUP1 REVERT JUMPDEST SWAP3 DUP5 ADD SWAP3 JUMPDEST DUP3 DUP5 LT ISZERO PUSH2 0x1D05 JUMPI PUSH2 0x1E6D DUP5 PUSH2 0x19D4 JUMP JUMPDEST DUP3 MSTORE SWAP3 DUP5 ADD SWAP3 SWAP1 DUP5 ADD SWAP1 PUSH2 0x1E5C JUMP JUMPDEST DUP1 PUSH1 0x0 JUMPDEST PUSH1 0x2 DUP2 LT ISZERO PUSH2 0x1E9F JUMPI DUP2 MLOAD DUP5 MSTORE PUSH1 0x20 SWAP4 DUP5 ADD SWAP4 SWAP1 SWAP2 ADD SWAP1 PUSH1 0x1 ADD PUSH2 0x1E80 JUMP JUMPDEST POP POP POP POP JUMP JUMPDEST DUP1 PUSH1 0x0 JUMPDEST PUSH1 0x2 DUP2 LT ISZERO PUSH2 0x1E9F JUMPI PUSH2 0x1EBD DUP5 DUP4 MLOAD PUSH2 0x1E7C JUMP JUMPDEST PUSH1 0x40 SWAP4 SWAP1 SWAP4 ADD SWAP3 PUSH1 0x20 SWAP2 SWAP1 SWAP2 ADD SWAP1 PUSH1 0x1 ADD PUSH2 0x1EA9 JUMP JUMPDEST PUSH2 0x120 DUP2 ADD PUSH2 0x1EE2 DUP3 DUP8 PUSH2 0x1E7C JUMP JUMPDEST PUSH2 0x1EEF PUSH1 0x40 DUP4 ADD DUP7 PUSH2 0x1EA5 JUMP JUMPDEST PUSH2 0x1EFC PUSH1 0xC0 DUP4 ADD DUP6 PUSH2 0x1E7C JUMP JUMPDEST PUSH2 0x100 DUP3 ADD DUP4 PUSH1 0x0 JUMPDEST PUSH1 0x1 DUP2 LT ISZERO PUSH2 0x1F24 JUMPI DUP2 MLOAD DUP4 MSTORE PUSH1 0x20 SWAP3 DUP4 ADD SWAP3 SWAP1 SWAP2 ADD SWAP1 PUSH1 0x1 ADD PUSH2 0x1F05 JUMP JUMPDEST POP POP POP SWAP6 SWAP5 POP POP POP POP POP JUMP JUMPDEST PUSH1 0x0 PUSH1 0x20 DUP3 DUP5 SUB SLT ISZERO PUSH2 0x1F42 JUMPI PUSH1 0x0 DUP1 REVERT JUMPDEST DUP2 MLOAD DUP1 ISZERO ISZERO DUP2 EQ PUSH2 0x1ABE JUMPI PUSH1 0x0 DUP1 REVERT JUMPDEST PUSH4 0x4E487B71 PUSH1 0xE0 SHL PUSH1 0x0 MSTORE PUSH1 0x32 PUSH1 0x4 MSTORE PUSH1 0x24 PUSH1 0x0 REVERT JUMPDEST PUSH1 0x0 PUSH1 0x1 DUP3 ADD PUSH2 0x1F88 JUMPI PUSH4 0x4E487B71 PUSH1 0xE0 SHL PUSH1 0x0 MSTORE PUSH1 0x11 PUSH1 0x4 MSTORE PUSH1 0x24 PUSH1 0x0 REVERT JUMPDEST POP PUSH1 0x1 ADD SWAP1 JUMP JUMPDEST PUSH2 0x140 DUP2 ADD PUSH2 0x1F9E DUP3 DUP8 PUSH2 0x1E7C JUMP JUMPDEST PUSH2 0x1FAB PUSH1 0x40 DUP4 ADD DUP7 PUSH2 0x1EA5 JUMP JUMPDEST PUSH2 0x1FB8 PUSH1 0xC0 DUP4 ADD DUP6 PUSH2 0x1E7C JUMP JUMPDEST PUSH2 0x1FC6 PUSH2 0x100 DUP4 ADD DUP5 PUSH2 0x1E7C JUMP JUMPDEST SWAP6 SWAP5 POP POP POP POP POP JUMP JUMPDEST PUSH1 0x40 DUP2 MSTORE PUSH1 0x0 PUSH2 0x1FE2 PUSH1 0x40 DUP4 ADD DUP6 PUSH2 0x1A65 JUMP JUMPDEST SWAP1 POP DUP3 PUSH1 0x20 DUP4 ADD MSTORE SWAP4 SWAP3 POP POP POP JUMP INVALID LOG2 PUSH5 0x6970667358 0x22 SLT KECCAK256 0x4E 0xC2 BLOCKHASH 0xD4 0xDD KECCAK256 PUSH16 0x34579699EB5A702268B5BA508273D8F6 0xEC LOG0 0x4D SIGNEXTEND TIMESTAMP 0x25 0xEF DUP1 0xAE PUSH5 0x736F6C6343 STOP ADDMOD GT STOP CALLER "},"gasEstimates":{"creation":{"codeDepositCost":"1646200","executionCost":"infinite","totalCost":"infinite"},"external":{"Trustees(uint256)":"4681","cancelRecovery(uint256[2],uint256[2][2],uint256[2],uint256[1],uint256)":"infinite","currentRecoveryNumber()":"2383","executeRecoveryChange(uint256[2],uint256[2][2],uint256[2],uint256[1],uint256)":"infinite","executeTxn(uint256[2],uint256[2][2],uint256[2],uint256[2],address,uint256)":"infinite","isRecoveryOn()":"2377","numberTrustees()":"2341","onERC721Received(address,address,uint256,bytes)":"infinite","owner()":"2382","setTrustees(address[])":"infinite","setTrusteesPasswords(uint256[])":"infinite","startRecovery(uint256[2],uint256[2][2],uint256[2],uint256[1],address)":"infinite","verifyOTP(uint256[2],uint256[2][2],uint256[2],uint256[2])":"infinite","voteInRecovery(uint256[2],uint256[2][2],uint256[2],uint256[1],uint256)":"infinite"}},"methodIdentifiers":{"Trustees(uint256)":"4e8a2409","cancelRecovery(uint256[2],uint256[2][2],uint256[2],uint256[1],uint256)":"37dc1813","currentRecoveryNumber()":"e9c4bfe7","executeRecoveryChange(uint256[2],uint256[2][2],uint256[2],uint256[1],uint256)":"b21fa1ae","executeTxn(uint256[2],uint256[2][2],uint256[2],uint256[2],address,uint256)":"037133f1","isRecoveryOn()":"9c62291a","numberTrustees()":"07238be3","onERC721Received(address,address,uint256,bytes)":"150b7a02","owner()":"8da5cb5b","setTrustees(address[])":"bb3accf0","setTrusteesPasswords(uint256[])":"4b58867f","startRecovery(uint256[2],uint256[2][2],uint256[2],uint256[1],address)":"4f20804b","verifyOTP(uint256[2],uint256[2][2],uint256[2],uint256[2])":"a9f3402c","voteInRecovery(uint256[2],uint256[2][2],uint256[2],uint256[1],uint256)":"789bcd08"}},"storageLayout":{"storage":[{"astId":1063,"contract":"contracts/ZkSocialRecoveryWallet.sol:ZkSocialRecoveryWallet","label":"lastValidatedTimestamp","offset":0,"slot":"0","type":"t_uint256"},{"astId":1181,"contract":"contracts/ZkSocialRecoveryWallet.sol:ZkSocialRecoveryWallet","label":"hashCheckVerifier","offset":0,"slot":"1","type":"t_address"},{"astId":1183,"contract":"contracts/ZkSocialRecoveryWallet.sol:ZkSocialRecoveryWallet","label":"owner","offset":0,"slot":"2","type":"t_address"},{"astId":1185,"contract":"contracts/ZkSocialRecoveryWallet.sol:ZkSocialRecoveryWallet","label":"ownerPasswordHash","offset":0,"slot":"3","type":"t_uint256"},{"astId":1187,"contract":"contracts/ZkSocialRecoveryWallet.sol:ZkSocialRecoveryWallet","label":"thresholdForRecovery","offset":0,"slot":"4","type":"t_uint256"},{"astId":1189,"contract":"contracts/ZkSocialRecoveryWallet.sol:ZkSocialRecoveryWallet","label":"currentRecoveryNumber","offset":0,"slot":"5","type":"t_uint256"},{"astId":1191,"contract":"contracts/ZkSocialRecoveryWallet.sol:ZkSocialRecoveryWallet","label":"numberTrustees","offset":0,"slot":"6","type":"t_uint256"},{"astId":1194,"contract":"contracts/ZkSocialRecoveryWallet.sol:ZkSocialRecoveryWallet","label":"Trustees","offset":0,"slot":"7","type":"t_array(t_address)dyn_storage"},{"astId":1198,"contract":"contracts/ZkSocialRecoveryWallet.sol:ZkSocialRecoveryWallet","label":"Trustee","offset":0,"slot":"8","type":"t_mapping(t_address,t_bool)"},{"astId":1202,"contract":"contracts/ZkSocialRecoveryWallet.sol:ZkSocialRecoveryWallet","label":"trusteeToPasswordHash","offset":0,"slot":"9","type":"t_mapping(t_address,t_uint256)"},{"astId":1206,"contract":"contracts/ZkSocialRecoveryWallet.sol:ZkSocialRecoveryWallet","label":"pastOwners","offset":0,"slot":"10","type":"t_mapping(t_address,t_bool)"},{"astId":1210,"contract":"contracts/ZkSocialRecoveryWallet.sol:ZkSocialRecoveryWallet","label":"usedProofs","offset":0,"slot":"11","type":"t_mapping(t_uint256,t_bool)"},{"astId":1212,"contract":"contracts/ZkSocialRecoveryWallet.sol:ZkSocialRecoveryWallet","label":"isRecoveryOn","offset":0,"slot":"12","type":"t_bool"},{"astId":1228,"contract":"contracts/ZkSocialRecoveryWallet.sol:ZkSocialRecoveryWallet","label":"recoveryRoundNumberToProcedure","offset":0,"slot":"13","type":"t_mapping(t_uint256,t_struct(RecoveryProcedure)1223_storage)"}],"types":{"t_address":{"encoding":"inplace","label":"address","numberOfBytes":"20"},"t_array(t_address)dyn_storage":{"base":"t_address","encoding":"dynamic_array","label":"address[]","numberOfBytes":"32"},"t_bool":{"encoding":"inplace","label":"bool","numberOfBytes":"1"},"t_mapping(t_address,t_bool)":{"encoding":"mapping","key":"t_address","label":"mapping(address => bool)","numberOfBytes":"32","value":"t_bool"},"t_mapping(t_address,t_uint256)":{"encoding":"mapping","key":"t_address","label":"mapping(address => uint256)","numberOfBytes":"32","value":"t_uint256"},"t_mapping(t_uint256,t_bool)":{"encoding":"mapping","key":"t_uint256","label":"mapping(uint256 => bool)","numberOfBytes":"32","value":"t_bool"},"t_mapping(t_uint256,t_struct(RecoveryProcedure)1223_storage)":{"encoding":"mapping","key":"t_uint256","label":"mapping(uint256 => struct ZkSocialRecoveryWallet.RecoveryProcedure)","numberOfBytes":"32","value":"t_struct(RecoveryProcedure)1223_storage"},"t_struct(RecoveryProcedure)1223_storage":{"encoding":"inplace","label":"struct ZkSocialRecoveryWallet.RecoveryProcedure","members":[{"astId":1214,"contract":"contracts/ZkSocialRecoveryWallet.sol:ZkSocialRecoveryWallet","label":"numberOfVotesInSupport","offset":0,"slot":"0","type":"t_uint256"},{"astId":1216,"contract":"contracts/ZkSocialRecoveryWallet.sol:ZkSocialRecoveryWallet","label":"newOwnerProposed","offset":0,"slot":"1","type":"t_address"},{"astId":1218,"contract":"contracts/ZkSocialRecoveryWallet.sol:ZkSocialRecoveryWallet","label":"isPassed","offset":20,"slot":"1","type":"t_bool"},{"astId":1222,"contract":"contracts/ZkSocialRecoveryWallet.sol:ZkSocialRecoveryWallet","label":"trusteeSupporters","offset":0,"slot":"2","type":"t_mapping(t_address,t_bool)"}],"numberOfBytes":"96"},"t_uint256":{"encoding":"inplace","label":"uint256","numberOfBytes":"32"}}},"userdoc":{"kind":"user","methods":{},"version":1}}}}