{"contracts/ZkOtpValidator.sol":{"ZkOtpValidator":{"abi":[{"inputs":[{"internalType":"uint256","name":"_root","type":"uint256"},{"internalType":"address","name":"_verifier","type":"address"}],"stateMutability":"nonpayable","type":"constructor"},{"inputs":[{"internalType":"uint256[2]","name":"a","type":"uint256[2]"},{"internalType":"uint256[2][2]","name":"b","type":"uint256[2][2]"},{"internalType":"uint256[2]","name":"c","type":"uint256[2]"},{"internalType":"uint256[2]","name":"input","type":"uint256[2]"}],"name":"verifyOTP","outputs":[{"internalType":"bool","name":"success","type":"bool"}],"stateMutability":"nonpayable","type":"function"}],"devdoc":{"kind":"dev","methods":{},"version":1},"evm":{"bytecode":{"linkReferences":{},"object":"60c060405234801561001057600080fd5b5060405161053438038061053483398101604081905261002f91610046565b6080919091526001600160a01b031660a052610083565b6000806040838503121561005957600080fd5b825160208401519092506001600160a01b038116811461007857600080fd5b809150509250929050565b60805160a05161048d6100a7600039600061016101526000605e015261048d6000f3fe608060405234801561001057600080fd5b506004361061002b5760003560e01c8063a9f3402c14610030575b600080fd5b61004361003e3660046102da565b610057565b604051901515815260200160405180910390f35b80516000907f0000000000000000000000000000000000000000000000000000000000000000146100cf5760405162461bcd60e51b815260206004820152600e60248201527f496e636f6f7265637420726f6f7400000000000000000000000000000000000060448201526064015b60405180910390fd5b6000546020830151116101245760405162461bcd60e51b815260206004820152600960248201527f4f6c642050726f6f66000000000000000000000000000000000000000000000060448201526064016100c6565b6040517ff5c9d69e00000000000000000000000000000000000000000000000000000000815273ffffffffffffffffffffffffffffffffffffffff7f0000000000000000000000000000000000000000000000000000000000000000169063f5c9d69e9061019c9088908890889088906004016103a3565b602060405180830381865afa1580156101b9573d6000803e3d6000fd5b505050506040513d601f19601f820116820180604052508101906101dd919061042e565b6102295760405162461bcd60e51b815260206004820152600d60248201527f496e76616c69642070726f6f660000000000000000000000000000000000000060448201526064016100c6565b506020015160005550600192915050565b6040805190810167ffffffffffffffff81118282101715610284577f4e487b7100000000000000000000000000000000000000000000000000000000600052604160045260246000fd5b60405290565b600082601f83011261029b57600080fd5b6102a361023a565b8060408401858111156102b557600080fd5b845b818110156102cf5780358452602093840193016102b7565b509095945050505050565b60008060008061014085870312156102f157600080fd5b6102fb868661028a565b9350604086605f87011261030e57600080fd5b61031661023a565b8060c088018981111561032857600080fd5b8389015b8181101561034d5761033e8b8261028a565b8452602090930192840161032c565b5081965061035b8a8261028a565b95505050505061036f86610100870161028a565b905092959194509250565b8060005b600281101561039d57815184526020938401939091019060010161037e565b50505050565b61014081016103b2828761037a565b6040808301866000805b60028082106103cb5750610405565b835185845b838110156103ee5782518252602092830192909101906001016103d0565b5050509385019350602092909201916001016103bc565b505050505061041760c083018561037a565b61042561010083018461037a565b95945050505050565b60006020828403121561044057600080fd5b8151801515811461045057600080fd5b939250505056fea26469706673582212206395795d36789e7a9b6888bfe90d51af8eaca0172948c5706e44adf31974fadf64736f6c63430008110033","opcodes":"PUSH1 0xC0 PUSH1 0x40 MSTORE CALLVALUE DUP1 ISZERO PUSH2 0x10 JUMPI PUSH1 0x0 DUP1 REVERT JUMPDEST POP PUSH1 0x40 MLOAD PUSH2 0x534 CODESIZE SUB DUP1 PUSH2 0x534 DUP4 CODECOPY DUP2 ADD PUSH1 0x40 DUP2 SWAP1 MSTORE PUSH2 0x2F SWAP2 PUSH2 0x46 JUMP JUMPDEST PUSH1 0x80 SWAP2 SWAP1 SWAP2 MSTORE PUSH1 0x1 PUSH1 0x1 PUSH1 0xA0 SHL SUB AND PUSH1 0xA0 MSTORE PUSH2 0x83 JUMP JUMPDEST PUSH1 0x0 DUP1 PUSH1 0x40 DUP4 DUP6 SUB SLT ISZERO PUSH2 0x59 JUMPI PUSH1 0x0 DUP1 REVERT JUMPDEST DUP3 MLOAD PUSH1 0x20 DUP5 ADD MLOAD SWAP1 SWAP3 POP PUSH1 0x1 PUSH1 0x1 PUSH1 0xA0 SHL SUB DUP2 AND DUP2 EQ PUSH2 0x78 JUMPI PUSH1 0x0 DUP1 REVERT JUMPDEST DUP1 SWAP2 POP POP SWAP3 POP SWAP3 SWAP1 POP JUMP JUMPDEST PUSH1 0x80 MLOAD PUSH1 0xA0 MLOAD PUSH2 0x48D PUSH2 0xA7 PUSH1 0x0 CODECOPY PUSH1 0x0 PUSH2 0x161 ADD MSTORE PUSH1 0x0 PUSH1 0x5E ADD MSTORE PUSH2 0x48D PUSH1 0x0 RETURN INVALID PUSH1 0x80 PUSH1 0x40 MSTORE CALLVALUE DUP1 ISZERO PUSH2 0x10 JUMPI PUSH1 0x0 DUP1 REVERT JUMPDEST POP PUSH1 0x4 CALLDATASIZE LT PUSH2 0x2B JUMPI PUSH1 0x0 CALLDATALOAD PUSH1 0xE0 SHR DUP1 PUSH4 0xA9F3402C EQ PUSH2 0x30 JUMPI JUMPDEST PUSH1 0x0 DUP1 REVERT JUMPDEST PUSH2 0x43 PUSH2 0x3E CALLDATASIZE PUSH1 0x4 PUSH2 0x2DA JUMP JUMPDEST PUSH2 0x57 JUMP JUMPDEST PUSH1 0x40 MLOAD SWAP1 ISZERO ISZERO DUP2 MSTORE PUSH1 0x20 ADD PUSH1 0x40 MLOAD DUP1 SWAP2 SUB SWAP1 RETURN JUMPDEST DUP1 MLOAD PUSH1 0x0 SWAP1 PUSH32 0x0 EQ PUSH2 0xCF JUMPI PUSH1 0x40 MLOAD PUSH3 0x461BCD PUSH1 0xE5 SHL DUP2 MSTORE PUSH1 0x20 PUSH1 0x4 DUP3 ADD MSTORE PUSH1 0xE PUSH1 0x24 DUP3 ADD MSTORE PUSH32 0x496E636F6F7265637420726F6F74000000000000000000000000000000000000 PUSH1 0x44 DUP3 ADD MSTORE PUSH1 0x64 ADD JUMPDEST PUSH1 0x40 MLOAD DUP1 SWAP2 SUB SWAP1 REVERT JUMPDEST PUSH1 0x0 SLOAD PUSH1 0x20 DUP4 ADD MLOAD GT PUSH2 0x124 JUMPI PUSH1 0x40 MLOAD PUSH3 0x461BCD PUSH1 0xE5 SHL DUP2 MSTORE PUSH1 0x20 PUSH1 0x4 DUP3 ADD MSTORE PUSH1 0x9 PUSH1 0x24 DUP3 ADD MSTORE PUSH32 0x4F6C642050726F6F660000000000000000000000000000000000000000000000 PUSH1 0x44 DUP3 ADD MSTORE PUSH1 0x64 ADD PUSH2 0xC6 JUMP JUMPDEST PUSH1 0x40 MLOAD PUSH32 0xF5C9D69E00000000000000000000000000000000000000000000000000000000 DUP2 MSTORE PUSH20 0xFFFFFFFFFFFFFFFFFFFFFFFFFFFFFFFFFFFFFFFF PUSH32 0x0 AND SWAP1 PUSH4 0xF5C9D69E SWAP1 PUSH2 0x19C SWAP1 DUP9 SWAP1 DUP9 SWAP1 DUP9 SWAP1 DUP9 SWAP1 PUSH1 0x4 ADD PUSH2 0x3A3 JUMP JUMPDEST PUSH1 0x20 PUSH1 0x40 MLOAD DUP1 DUP4 SUB DUP2 DUP7 GAS STATICCALL ISZERO DUP1 ISZERO PUSH2 0x1B9 JUMPI RETURNDATASIZE PUSH1 0x0 DUP1 RETURNDATACOPY RETURNDATASIZE PUSH1 0x0 REVERT JUMPDEST POP POP POP POP PUSH1 0x40 MLOAD RETURNDATASIZE PUSH1 0x1F NOT PUSH1 0x1F DUP3 ADD AND DUP3 ADD DUP1 PUSH1 0x40 MSTORE POP DUP2 ADD SWAP1 PUSH2 0x1DD SWAP2 SWAP1 PUSH2 0x42E JUMP JUMPDEST PUSH2 0x229 JUMPI PUSH1 0x40 MLOAD PUSH3 0x461BCD PUSH1 0xE5 SHL DUP2 MSTORE PUSH1 0x20 PUSH1 0x4 DUP3 ADD MSTORE PUSH1 0xD PUSH1 0x24 DUP3 ADD MSTORE PUSH32 0x496E76616C69642070726F6F6600000000000000000000000000000000000000 PUSH1 0x44 DUP3 ADD MSTORE PUSH1 0x64 ADD PUSH2 0xC6 JUMP JUMPDEST POP PUSH1 0x20 ADD MLOAD PUSH1 0x0 SSTORE POP PUSH1 0x1 SWAP3 SWAP2 POP POP JUMP JUMPDEST PUSH1 0x40 DUP1 MLOAD SWAP1 DUP2 ADD PUSH8 0xFFFFFFFFFFFFFFFF DUP2 GT DUP3 DUP3 LT OR ISZERO PUSH2 0x284 JUMPI PUSH32 0x4E487B7100000000000000000000000000000000000000000000000000000000 PUSH1 0x0 MSTORE PUSH1 0x41 PUSH1 0x4 MSTORE PUSH1 0x24 PUSH1 0x0 REVERT JUMPDEST PUSH1 0x40 MSTORE SWAP1 JUMP JUMPDEST PUSH1 0x0 DUP3 PUSH1 0x1F DUP4 ADD SLT PUSH2 0x29B JUMPI PUSH1 0x0 DUP1 REVERT JUMPDEST PUSH2 0x2A3 PUSH2 0x23A JUMP JUMPDEST DUP1 PUSH1 0x40 DUP5 ADD DUP6 DUP2 GT ISZERO PUSH2 0x2B5 JUMPI PUSH1 0x0 DUP1 REVERT JUMPDEST DUP5 JUMPDEST DUP2 DUP2 LT ISZERO PUSH2 0x2CF JUMPI DUP1 CALLDATALOAD DUP5 MSTORE PUSH1 0x20 SWAP4 DUP5 ADD SWAP4 ADD PUSH2 0x2B7 JUMP JUMPDEST POP SWAP1 SWAP6 SWAP5 POP POP POP POP POP JUMP JUMPDEST PUSH1 0x0 DUP1 PUSH1 0x0 DUP1 PUSH2 0x140 DUP6 DUP8 SUB SLT ISZERO PUSH2 0x2F1 JUMPI PUSH1 0x0 DUP1 REVERT JUMPDEST PUSH2 0x2FB DUP7 DUP7 PUSH2 0x28A JUMP JUMPDEST SWAP4 POP PUSH1 0x40 DUP7 PUSH1 0x5F DUP8 ADD SLT PUSH2 0x30E JUMPI PUSH1 0x0 DUP1 REVERT JUMPDEST PUSH2 0x316 PUSH2 0x23A JUMP JUMPDEST DUP1 PUSH1 0xC0 DUP9 ADD DUP10 DUP2 GT ISZERO PUSH2 0x328 JUMPI PUSH1 0x0 DUP1 REVERT JUMPDEST DUP4 DUP10 ADD JUMPDEST DUP2 DUP2 LT ISZERO PUSH2 0x34D JUMPI PUSH2 0x33E DUP12 DUP3 PUSH2 0x28A JUMP JUMPDEST DUP5 MSTORE PUSH1 0x20 SWAP1 SWAP4 ADD SWAP3 DUP5 ADD PUSH2 0x32C JUMP JUMPDEST POP DUP2 SWAP7 POP PUSH2 0x35B DUP11 DUP3 PUSH2 0x28A JUMP JUMPDEST SWAP6 POP POP POP POP POP PUSH2 0x36F DUP7 PUSH2 0x100 DUP8 ADD PUSH2 0x28A JUMP JUMPDEST SWAP1 POP SWAP3 SWAP6 SWAP2 SWAP5 POP SWAP3 POP JUMP JUMPDEST DUP1 PUSH1 0x0 JUMPDEST PUSH1 0x2 DUP2 LT ISZERO PUSH2 0x39D JUMPI DUP2 MLOAD DUP5 MSTORE PUSH1 0x20 SWAP4 DUP5 ADD SWAP4 SWAP1 SWAP2 ADD SWAP1 PUSH1 0x1 ADD PUSH2 0x37E JUMP JUMPDEST POP POP POP POP JUMP JUMPDEST PUSH2 0x140 DUP2 ADD PUSH2 0x3B2 DUP3 DUP8 PUSH2 0x37A JUMP JUMPDEST PUSH1 0x40 DUP1 DUP4 ADD DUP7 PUSH1 0x0 DUP1 JUMPDEST PUSH1 0x2 DUP1 DUP3 LT PUSH2 0x3CB JUMPI POP PUSH2 0x405 JUMP JUMPDEST DUP4 MLOAD DUP6 DUP5 JUMPDEST DUP4 DUP2 LT ISZERO PUSH2 0x3EE JUMPI DUP3 MLOAD DUP3 MSTORE PUSH1 0x20 SWAP3 DUP4 ADD SWAP3 SWAP1 SWAP2 ADD SWAP1 PUSH1 0x1 ADD PUSH2 0x3D0 JUMP JUMPDEST POP POP POP SWAP4 DUP6 ADD SWAP4 POP PUSH1 0x20 SWAP3 SWAP1 SWAP3 ADD SWAP2 PUSH1 0x1 ADD PUSH2 0x3BC JUMP JUMPDEST POP POP POP POP POP PUSH2 0x417 PUSH1 0xC0 DUP4 ADD DUP6 PUSH2 0x37A JUMP JUMPDEST PUSH2 0x425 PUSH2 0x100 DUP4 ADD DUP5 PUSH2 0x37A JUMP JUMPDEST SWAP6 SWAP5 POP POP POP POP POP JUMP JUMPDEST PUSH1 0x0 PUSH1 0x20 DUP3 DUP5 SUB SLT ISZERO PUSH2 0x440 JUMPI PUSH1 0x0 DUP1 REVERT JUMPDEST DUP2 MLOAD DUP1 ISZERO ISZERO DUP2 EQ PUSH2 0x450 JUMPI PUSH1 0x0 DUP1 REVERT JUMPDEST SWAP4 SWAP3 POP POP POP JUMP INVALID LOG2 PUSH5 0x6970667358 0x22 SLT KECCAK256 PUSH4 0x95795D36 PUSH25 0x9E7A9B6888BFE90D51AF8EACA0172948C5706E44ADF31974FA 0xDF PUSH5 0x736F6C6343 STOP ADDMOD GT STOP CALLER "},"gasEstimates":{"creation":{"codeDepositCost":"233000","executionCost":"infinite","totalCost":"infinite"},"external":{"verifyOTP(uint256[2],uint256[2][2],uint256[2],uint256[2])":"infinite"}},"methodIdentifiers":{"verifyOTP(uint256[2],uint256[2][2],uint256[2],uint256[2])":"a9f3402c"}},"storageLayout":{"storage":[{"astId":1063,"contract":"contracts/ZkOtpValidator.sol:ZkOtpValidator","label":"lastValidatedTimestamp","offset":0,"slot":"0","type":"t_uint256"}],"types":{"t_uint256":{"encoding":"inplace","label":"uint256","numberOfBytes":"32"}}},"userdoc":{"kind":"user","methods":{},"version":1}}}}