{
  "_format": "hh-sol-artifact-1",
  "contractName": "OtpMerkleTreeVerifier",
  "sourceName": "contracts/Verifiers/OtpMerkleTreeVerifier.sol",
  "abi": [
    {
      "inputs": [
        {
          "internalType": "uint256[2]",
          "name": "a",
          "type": "uint256[2]"
        },
        {
          "internalType": "uint256[2][2]",
          "name": "b",
          "type": "uint256[2][2]"
        },
        {
          "internalType": "uint256[2]",
          "name": "c",
          "type": "uint256[2]"
        },
        {
          "internalType": "uint256[2]",
          "name": "input",
          "type": "uint256[2]"
        }
      ],
      "name": "verifyProof",
      "outputs": [
        {
          "internalType": "bool",
          "name": "r",
          "type": "bool"
        }
      ],
      "stateMutability": "view",
      "type": "function"
    }
  ],
  "bytecode": "0x608060405234801561001057600080fd5b506111ae806100206000396000f3fe608060405234801561001057600080fd5b506004361061002b5760003560e01c8063f5c9d69e14610030575b600080fd5b61004361003e366004611034565b610057565b604051901515815260200160405180910390f35b6000610061610e5d565b60408051808201825287518152602080890151818301529083528151608081018352875151818401908152885183015160608084019190915290825283518085018552898401805151825251840151818501528284015284830191909152825180840184528751815287830151818401528484015282516002808252918101845260009390928301908036833701905050905060005b600281101561014657848160028110610112576101126110d4565b6020020151828281518110610129576101296110d4565b60209081029190910101528061013e81611100565b9150506100f7565b506101518183610172565b6000036101635760019250505061016a565b6000925050505b949350505050565b60007f30644e72e131a029b85045b68181585d2833e84879b9709143e1f593f00000018161019e610374565b9050806080015151855160016101b49190611119565b146102065760405162461bcd60e51b815260206004820152601260248201527f76657269666965722d6261642d696e707574000000000000000000000000000060448201526064015b60405180910390fd5b604080518082019091526000808252602082018190525b86518110156102f75783878281518110610239576102396110d4565b60200260200101511061028e5760405162461bcd60e51b815260206004820152601f60248201527f76657269666965722d6774652d736e61726b2d7363616c61722d6669656c640060448201526064016101fd565b6102e3826102de85608001518460016102a79190611119565b815181106102b7576102b76110d4565b60200260200101518a85815181106102d1576102d16110d4565b6020026020010151610787565b610828565b9150806102ef81611100565b91505061021d565b50610320818360800151600081518110610313576103136110d4565b6020026020010151610828565b905061035661033286600001516108cc565b8660200151846000015185602001518587604001518b60400151896060015161096b565b610366576001935050505061036e565b600093505050505b92915050565b61037c610eae565b6040805180820182527f2d4d9aa7e302d9df41749d5507949d05dbea33fbb16c643b22f599a2be6df2e281527f14bedd503c37ceb061d8ec60209fe345ce89830a19230301f076caff004d19266020808301919091529083528151608080820184527f0967032fcbf776d1afc985f88877f182d38480a653f2decaa9794cbc3bf3060c8285019081527f0e187847ad4c798374d0d6732bf501847dd68bc0e071241e0213bc7fc13db7ab606080850191909152908352845180860186527f304cfbd1e08a704a99f5e847d93f8c3caafddec46b7a0d379da69a4d112346a781527f1739c1b1a457a8c7313123d24d2f9192f896b7c63eea05a9d57f06547ad0cec8818601528385015285840192909252835180820185527f198e9393920d483a7260bfb731fb5d25f1aa493335a9e71297e485b7aef312c28186019081527f1800deef121f1e76426a00665e5c4479674322d4f75edadd46debd5cd992f6ed828501528152845180860186527f090689d0585ff075ec9e99ad690c3395bc4b313370b38ef355acdadcd122975b81527f12c85ea5db8c6deb4aab71808dcb408fe3d1e7690c43d37b4ce6cc0166fa7daa818601528185015285850152835180820185527f0cc4b59df8cf5a3eca86ead7c8fe59dc93896bdacf39ceccc4cda50e154342a08186019081527f22037423fceeefc211ec9c9dd481dc05d1de6d9ff00faa7db9bb35a38d0c8bd4828501528152845180860186527f10f8fdb995a78676198357ecf8bc0fadbf08540296d1ff840ea436826c20e4ea81527f2b19017724b98705eddfa6ee54b155651ef3df82bd47da053c604ddce99ad81b818601528185015291850191909152825160038082529181019093529082015b60408051808201909152600080825260208201528152602001906001900390816105f857505060808201908152604080518082019091527f27da06957ec72bc4dd5706c4ca095f5f1736097b8a47df2c8cd458e37c45fd3781527f285573aded8b33beea38a830f0e7b65af420d0eb3a453849cd593628d7c2f6e860208201529051805160009061068b5761068b6110d4565b602002602001018190525060405180604001604052807f1f451f0062ba002e95b76dbd798c810c065db7e0c25f94b3e713f15f737234fe81526020017f135d44f2e932b7b664539f0fdd62e5a7e3c428d692a7763fbc190d6c696dc2f68152508160800151600181518110610702576107026110d4565b602002602001018190525060405180604001604052807f1303f6014601a6e9507a07aed8ba5bd957c58c2a98890bd4691e522c2ffb951581526020017f20ce22b17c2692d2dc80e4d28c7eb295c80156835efedad6368835f20dc8e4798152508160800151600281518110610779576107796110d4565b602002602001018190525090565b60408051808201909152600080825260208201526107a3610eff565b835181526020808501519082015260408101839052600060608360808460076107d05a03fa905080806107d257fe5b50806108205760405162461bcd60e51b815260206004820152601260248201527f70616972696e672d6d756c2d6661696c6564000000000000000000000000000060448201526064016101fd565b505092915050565b6040805180820190915260008082526020820152610844610f1d565b8351815260208085015181830152835160408301528301516060808301919091526000908360c08460066107d05a03fa9050808061087e57fe5b50806108205760405162461bcd60e51b815260206004820152601260248201527f70616972696e672d6164642d6661696c6564000000000000000000000000000060448201526064016101fd565b604080518082019091526000808252602082015281517f30644e72e131a029b85045b68181585d97816a916871ca8d3c208c16d87cfd479015801561091357506020830151155b156109335750506040805180820190915260008082526020820152919050565b604051806040016040528084600001518152602001828560200151610958919061112c565b610962908461114e565b90529392505050565b60408051600480825260a08201909252600091829190816020015b604080518082019091526000808252602082015281526020019060019003908161098657505060408051600480825260a0820190925291925060009190602082015b6109d0610f3b565b8152602001906001900390816109c85790505090508a826000815181106109f9576109f96110d4565b60200260200101819052508882600181518110610a1857610a186110d4565b60200260200101819052508682600281518110610a3757610a376110d4565b60200260200101819052508482600381518110610a5657610a566110d4565b60200260200101819052508981600081518110610a7557610a756110d4565b60200260200101819052508781600181518110610a9457610a946110d4565b60200260200101819052508581600281518110610ab357610ab36110d4565b60200260200101819052508381600381518110610ad257610ad26110d4565b6020026020010181905250610ae78282610af6565b9b9a5050505050505050505050565b60008151835114610b495760405162461bcd60e51b815260206004820152601660248201527f70616972696e672d6c656e677468732d6661696c65640000000000000000000060448201526064016101fd565b82516000610b58826006611161565b905060008167ffffffffffffffff811115610b7557610b75610f97565b604051908082528060200260200182016040528015610b9e578160200160208202803683370190505b50905060005b83811015610dd957868181518110610bbe57610bbe6110d4565b60200260200101516000015182826006610bd89190611161565b610be3906000611119565b81518110610bf357610bf36110d4565b602002602001018181525050868181518110610c1157610c116110d4565b60200260200101516020015182826006610c2b9190611161565b610c36906001611119565b81518110610c4657610c466110d4565b602002602001018181525050858181518110610c6457610c646110d4565b6020908102919091010151515182610c7d836006611161565b610c88906002611119565b81518110610c9857610c986110d4565b602002602001018181525050858181518110610cb657610cb66110d4565b60209081029190910181015151015182610cd1836006611161565b610cdc906003611119565b81518110610cec57610cec6110d4565b602002602001018181525050858181518110610d0a57610d0a6110d4565b602002602001015160200151600060028110610d2857610d286110d4565b602002015182610d39836006611161565b610d44906004611119565b81518110610d5457610d546110d4565b602002602001018181525050858181518110610d7257610d726110d4565b602002602001015160200151600160028110610d9057610d906110d4565b602002015182610da1836006611161565b610dac906005611119565b81518110610dbc57610dbc6110d4565b602090810291909101015280610dd181611100565b915050610ba4565b50610de2610f5b565b6000602082602086026020860160086107d05a03fa90508080610e0157fe5b5080610e4f5760405162461bcd60e51b815260206004820152601560248201527f70616972696e672d6f70636f64652d6661696c6564000000000000000000000060448201526064016101fd565b505115159695505050505050565b6040805160a081019091526000606082018181526080830191909152815260208101610e87610f3b565b8152602001610ea9604051806040016040528060008152602001600081525090565b905290565b6040805160e08101909152600060a0820181815260c0830191909152815260208101610ed8610f3b565b8152602001610ee5610f3b565b8152602001610ef2610f3b565b8152602001606081525090565b60405180606001604052806003906020820280368337509192915050565b60405180608001604052806004906020820280368337509192915050565b6040518060400160405280610f4e610f79565b8152602001610ea9610f79565b60405180602001604052806001906020820280368337509192915050565b60405180604001604052806002906020820280368337509192915050565b634e487b7160e01b600052604160045260246000fd5b6040805190810167ffffffffffffffff81118282101715610fde57634e487b7160e01b600052604160045260246000fd5b60405290565b600082601f830112610ff557600080fd5b610ffd610fad565b80604084018581111561100f57600080fd5b845b81811015611029578035845260209384019301611011565b509095945050505050565b600080600080610140858703121561104b57600080fd5b6110558686610fe4565b9350604086605f87011261106857600080fd5b611070610fad565b8060c088018981111561108257600080fd5b8389015b818110156110a7576110988b82610fe4565b84526020909301928401611086565b508196506110b58a82610fe4565b9550505050506110c9866101008701610fe4565b905092959194509250565b634e487b7160e01b600052603260045260246000fd5b634e487b7160e01b600052601160045260246000fd5b600060018201611112576111126110ea565b5060010190565b8082018082111561036e5761036e6110ea565b60008261114957634e487b7160e01b600052601260045260246000fd5b500690565b8181038181111561036e5761036e6110ea565b808202811582820484141761036e5761036e6110ea56fea2646970667358221220412b08b7a404bd356fe451074b73d1974db0dffa2dfe2a08ce7a4fd2b5f06b0864736f6c63430008110033",
  "linkReferences": {},
  "deployedLinkReferences": {}
}