{
  "_format": "hh-sol-artifact-1",
  "contractName": "ZkOtpValidator",
  "sourceName": "contracts/ZkOtpValidator.sol",
  "abi": [
    {
      "inputs": [
        {
          "internalType": "uint256",
          "name": "_root",
          "type": "uint256"
        },
        {
          "internalType": "address",
          "name": "_verifier",
          "type": "address"
        }
      ],
      "stateMutability": "nonpayable",
      "type": "constructor"
    },
    {
      "inputs": [
        {
          "internalType": "uint256[2]",
          "name": "a",
          "type": "uint256[2]"
        },
        {
          "internalType": "uint256[2][2]",
          "name": "b",
          "type": "uint256[2][2]"
        },
        {
          "internalType": "uint256[2]",
          "name": "c",
          "type": "uint256[2]"
        },
        {
          "internalType": "uint256[2]",
          "name": "input",
          "type": "uint256[2]"
        }
      ],
      "name": "verifyOTP",
      "outputs": [
        {
          "internalType": "bool",
          "name": "success",
          "type": "bool"
        }
      ],
      "stateMutability": "nonpayable",
      "type": "function"
    }
  ],
  "bytecode": "0x60c060405234801561001057600080fd5b50604051610a93380380610a938339818101604052810190610032919061010e565b81608081815250508073ffffffffffffffffffffffffffffffffffffffff1660a08173ffffffffffffffffffffffffffffffffffffffff1681525050505061014e565b600080fd5b6000819050919050565b61008d8161007a565b811461009857600080fd5b50565b6000815190506100aa81610084565b92915050565b600073ffffffffffffffffffffffffffffffffffffffff82169050919050565b60006100db826100b0565b9050919050565b6100eb816100d0565b81146100f657600080fd5b50565b600081519050610108816100e2565b92915050565b6000806040838503121561012557610124610075565b5b60006101338582860161009b565b9250506020610144858286016100f9565b9150509250929050565b60805160a051610921610172600039600061013a01526000606401526109216000f3fe608060405234801561001057600080fd5b506004361061002b5760003560e01c8063a9f3402c14610030575b600080fd5b61004a6004803603810190610045919061047f565b610060565b6040516100579190610503565b60405180910390f35b60007f0000000000000000000000000000000000000000000000000000000000000000826000600281106100975761009661051e565b5b6020020151146100dc576040517f08c379a00000000000000000000000000000000000000000000000000000000081526004016100d3906105aa565b60405180910390fd5b600054826001600281106100f3576100f261051e565b5b602002015111610138576040517f08c379a000000000000000000000000000000000000000000000000000000000815260040161012f90610616565b60405180910390fd5b7f000000000000000000000000000000000000000000000000000000000000000073ffffffffffffffffffffffffffffffffffffffff1663f5c9d69e868686866040518563ffffffff1660e01b815260040161019794939291906107df565b602060405180830381865afa1580156101b4573d6000803e3d6000fd5b505050506040513d601f19601f820116820180604052508101906101d89190610852565b610217576040517f08c379a000000000000000000000000000000000000000000000000000000000815260040161020e906108cb565b60405180910390fd5b8160016002811061022b5761022a61051e565b5b602002015160008190555060019050949350505050565b6000604051905090565b600080fd5b600080fd5b6000601f19601f8301169050919050565b7f4e487b7100000000000000000000000000000000000000000000000000000000600052604160045260246000fd5b61029f82610256565b810181811067ffffffffffffffff821117156102be576102bd610267565b5b80604052505050565b60006102d1610242565b90506102dd8282610296565b919050565b600067ffffffffffffffff8211156102fd576102fc610267565b5b602082029050919050565b600080fd5b6000819050919050565b6103208161030d565b811461032b57600080fd5b50565b60008135905061033d81610317565b92915050565b6000610356610351846102e2565b6102c7565b905080602084028301858111156103705761036f610308565b5b835b818110156103995780610385888261032e565b845260208401935050602081019050610372565b5050509392505050565b600082601f8301126103b8576103b7610251565b5b60026103c5848285610343565b91505092915050565b600067ffffffffffffffff8211156103e9576103e8610267565b5b602082029050919050565b6000610407610402846103ce565b6102c7565b9050806040840283018581111561042157610420610308565b5b835b8181101561044a578061043688826103a3565b845260208401935050604081019050610423565b5050509392505050565b600082601f83011261046957610468610251565b5b60026104768482856103f4565b91505092915050565b600080600080610140858703121561049a5761049961024c565b5b60006104a8878288016103a3565b94505060406104b987828801610454565b93505060c06104ca878288016103a3565b9250506101006104dc878288016103a3565b91505092959194509250565b60008115159050919050565b6104fd816104e8565b82525050565b600060208201905061051860008301846104f4565b92915050565b7f4e487b7100000000000000000000000000000000000000000000000000000000600052603260045260246000fd5b600082825260208201905092915050565b7f496e636f6f7265637420726f6f74000000000000000000000000000000000000600082015250565b6000610594600e8361054d565b915061059f8261055e565b602082019050919050565b600060208201905081810360008301526105c381610587565b9050919050565b7f4f6c642050726f6f660000000000000000000000000000000000000000000000600082015250565b600061060060098361054d565b915061060b826105ca565b602082019050919050565b6000602082019050818103600083015261062f816105f3565b9050919050565b600060029050919050565b600081905092915050565b6000819050919050565b61065f8161030d565b82525050565b60006106718383610656565b60208301905092915050565b6000602082019050919050565b61069381610636565b61069d8184610641565b92506106a88261064c565b8060005b838110156106d95781516106c08782610665565b96506106cb8361067d565b9250506001810190506106ac565b505050505050565b600060029050919050565b600081905092915050565b6000819050919050565b600081905092915050565b61071581610636565b61071f8184610701565b925061072a8261064c565b8060005b8381101561075b5781516107428782610665565b965061074d8361067d565b92505060018101905061072e565b505050505050565b600061076f838361070c565b60408301905092915050565b6000602082019050919050565b610791816106e1565b61079b81846106ec565b92506107a6826106f7565b8060005b838110156107d75781516107be8782610763565b96506107c98361077b565b9250506001810190506107aa565b505050505050565b6000610140820190506107f5600083018761068a565b6108026040830186610788565b61080f60c083018561068a565b61081d61010083018461068a565b95945050505050565b61082f816104e8565b811461083a57600080fd5b50565b60008151905061084c81610826565b92915050565b6000602082840312156108685761086761024c565b5b60006108768482850161083d565b91505092915050565b7f496e76616c69642070726f6f6600000000000000000000000000000000000000600082015250565b60006108b5600d8361054d565b91506108c08261087f565b602082019050919050565b600060208201905081810360008301526108e4816108a8565b905091905056fea2646970667358221220457e741bf8e201e9069441bdd0e48064867d24150340f2c088789ebd006e770d64736f6c63430008110033",
  "linkReferences": {},
  "deployedLinkReferences": {}
}